{
  "contractName": "KYC",
  "abi": [
    {
      "anonymous": false,
      "inputs": [
        {
          "indexed": true,
          "internalType": "address",
          "name": "industry",
          "type": "address"
        },
        {
          "indexed": false,
          "internalType": "string",
          "name": "ipfsUrl",
          "type": "string"
        }
      ],
      "name": "CertificateSubmitted",
      "type": "event"
    },
    {
      "anonymous": false,
      "inputs": [
        {
          "indexed": true,
          "internalType": "address",
          "name": "government",
          "type": "address"
        },
        {
          "indexed": true,
          "internalType": "address",
          "name": "industry",
          "type": "address"
        },
        {
          "indexed": false,
          "internalType": "enum KYC.VerificationStatus",
          "name": "status",
          "type": "uint8"
        }
      ],
      "name": "CertificateVerified",
      "type": "event"
    },
    {
      "inputs": [],
      "name": "certificateCount",
      "outputs": [
        {
          "internalType": "uint256",
          "name": "",
          "type": "uint256"
        }
      ],
      "stateMutability": "view",
      "type": "function",
      "constant": true
    },
    {
      "inputs": [
        {
          "internalType": "address",
          "name": "",
          "type": "address"
        }
      ],
      "name": "certificates",
      "outputs": [
        {
          "internalType": "string",
          "name": "ipfsUrl",
          "type": "string"
        },
        {
          "internalType": "enum KYC.VerificationStatus",
          "name": "status",
          "type": "uint8"
        },
        {
          "internalType": "address",
          "name": "submittedBy",
          "type": "address"
        },
        {
          "internalType": "address",
          "name": "verifiedBy",
          "type": "address"
        }
      ],
      "stateMutability": "view",
      "type": "function",
      "constant": true
    },
    {
      "inputs": [
        {
          "internalType": "uint256",
          "name": "",
          "type": "uint256"
        }
      ],
      "name": "industries",
      "outputs": [
        {
          "internalType": "address",
          "name": "",
          "type": "address"
        }
      ],
      "stateMutability": "view",
      "type": "function",
      "constant": true
    },
    {
      "inputs": [
        {
          "internalType": "string",
          "name": "ipfsUrl",
          "type": "string"
        }
      ],
      "name": "submitCertificate",
      "outputs": [],
      "stateMutability": "nonpayable",
      "type": "function"
    },
    {
      "inputs": [
        {
          "internalType": "address",
          "name": "industry",
          "type": "address"
        },
        {
          "internalType": "enum KYC.VerificationStatus",
          "name": "status",
          "type": "uint8"
        }
      ],
      "name": "verifyCertificate",
      "outputs": [],
      "stateMutability": "nonpayable",
      "type": "function"
    }
  ],
  "bytecode": "0x60806040526000805534801561001457600080fd5b50611020806100246000396000f3fe608060405234801561001057600080fd5b50600436106100565760003560e01c806216e5261461005b5780630e2126b21461008e57806352d7b89c146100aa5780636b946e40146100c8578063aa209301146100f8575b600080fd5b610075600480360381019061007091906109d0565b610114565b6040516100859493929190610c69565b60405180910390f35b6100a860048036038101906100a391906109f9565b610219565b005b6100b2610497565b6040516100bf9190610d15565b60405180910390f35b6100e260048036038101906100dd9190610a76565b61049d565b6040516100ef9190610c11565b60405180910390f35b610112600480360381019061010d9190610a35565b6104dc565b005b600160205280600052604060002060009150905080600001805461013790610e50565b80601f016020809104026020016040519081016040528092919081815260200182805461016390610e50565b80156101b05780601f10610185576101008083540402835291602001916101b0565b820191906000526020600020905b81548152906001019060200180831161019357829003601f168201915b5050505050908060010160009054906101000a900460ff16908060010160019054906101000a900473ffffffffffffffffffffffffffffffffffffffff16908060020160009054906101000a900473ffffffffffffffffffffffffffffffffffffffff16905084565b8160006002811115610254577f4e487b7100000000000000000000000000000000000000000000000000000000600052602160045260246000fd5b600160008373ffffffffffffffffffffffffffffffffffffffff1673ffffffffffffffffffffffffffffffffffffffff16815260200190815260200160002060010160009054906101000a900460ff1660028111156102dc577f4e487b7100000000000000000000000000000000000000000000000000000000600052602160045260246000fd5b1461031c576040517f08c379a000000000000000000000000000000000000000000000000000000000815260040161031390610cb5565b60405180910390fd5b81600160008573ffffffffffffffffffffffffffffffffffffffff1673ffffffffffffffffffffffffffffffffffffffff16815260200190815260200160002060010160006101000a81548160ff021916908360028111156103a7577f4e487b7100000000000000000000000000000000000000000000000000000000600052602160045260246000fd5b021790555033600160008573ffffffffffffffffffffffffffffffffffffffff1673ffffffffffffffffffffffffffffffffffffffff16815260200190815260200160002060020160006101000a81548173ffffffffffffffffffffffffffffffffffffffff021916908373ffffffffffffffffffffffffffffffffffffffff1602179055508273ffffffffffffffffffffffffffffffffffffffff163373ffffffffffffffffffffffffffffffffffffffff167f773824696e363013fa0795129b6c117667f56a9e43b838c3ff076c2a0a80af768460405161048a9190610c2c565b60405180910390a3505050565b60005481565b600281815481106104ad57600080fd5b906000526020600020016000915054906101000a900473ffffffffffffffffffffffffffffffffffffffff1681565b6000815111610520576040517f08c379a000000000000000000000000000000000000000000000000000000000815260040161051790610cd5565b60405180910390fd5b600073ffffffffffffffffffffffffffffffffffffffff16600160003373ffffffffffffffffffffffffffffffffffffffff1673ffffffffffffffffffffffffffffffffffffffff16815260200190815260200160002060010160019054906101000a900473ffffffffffffffffffffffffffffffffffffffff1673ffffffffffffffffffffffffffffffffffffffff16146105f1576040517f08c379a00000000000000000000000000000000000000000000000000000000081526004016105e890610cf5565b60405180910390fd5b60405180608001604052808281526020016000600281111561063c577f4e487b7100000000000000000000000000000000000000000000000000000000600052602160045260246000fd5b81526020013373ffffffffffffffffffffffffffffffffffffffff168152602001600073ffffffffffffffffffffffffffffffffffffffff16815250600160003373ffffffffffffffffffffffffffffffffffffffff1673ffffffffffffffffffffffffffffffffffffffff16815260200190815260200160002060008201518160000190805190602001906106d3929190610886565b5060208201518160010160006101000a81548160ff02191690836002811115610725577f4e487b7100000000000000000000000000000000000000000000000000000000600052602160045260246000fd5b021790555060408201518160010160016101000a81548173ffffffffffffffffffffffffffffffffffffffff021916908373ffffffffffffffffffffffffffffffffffffffff16021790555060608201518160020160006101000a81548173ffffffffffffffffffffffffffffffffffffffff021916908373ffffffffffffffffffffffffffffffffffffffff1602179055509050506000808154809291906107cd90610e82565b91905055506002339080600181540180825580915050600190039060005260206000200160009091909190916101000a81548173ffffffffffffffffffffffffffffffffffffffff021916908373ffffffffffffffffffffffffffffffffffffffff1602179055503373ffffffffffffffffffffffffffffffffffffffff167f896c7f89049b10206b235707d3d1d91257c12ae5da94321b04e39842d3c4e16b8260405161087b9190610c47565b60405180910390a250565b82805461089290610e50565b90600052602060002090601f0160209004810192826108b457600085556108fb565b82601f106108cd57805160ff19168380011785556108fb565b828001600101855582156108fb579182015b828111156108fa5782518255916020019190600101906108df565b5b509050610908919061090c565b5090565b5b8082111561092557600081600090555060010161090d565b5090565b600061093c61093784610d61565b610d30565b90508281526020810184848401111561095457600080fd5b61095f848285610e0e565b509392505050565b60008135905061097681610fac565b92915050565b60008135905061098b81610fc3565b92915050565b600082601f8301126109a257600080fd5b81356109b2848260208601610929565b91505092915050565b6000813590506109ca81610fd3565b92915050565b6000602082840312156109e257600080fd5b60006109f084828501610967565b91505092915050565b60008060408385031215610a0c57600080fd5b6000610a1a85828601610967565b9250506020610a2b8582860161097c565b9150509250929050565b600060208284031215610a4757600080fd5b600082013567ffffffffffffffff811115610a6157600080fd5b610a6d84828501610991565b91505092915050565b600060208284031215610a8857600080fd5b6000610a96848285016109bb565b91505092915050565b610aa881610dad565b82525050565b610ab781610dfc565b82525050565b6000610ac882610d91565b610ad28185610d9c565b9350610ae2818560208601610e1d565b610aeb81610f87565b840191505092915050565b6000610b03602983610d9c565b91507f4b59433a204365727469666963617465206e6f742070656e64696e672076657260008301527f696669636174696f6e00000000000000000000000000000000000000000000006020830152604082019050919050565b6000610b69601d83610d9c565b91507f4b59433a20495046532055524c2063616e6e6f7420626520656d7074790000006000830152602082019050919050565b6000610ba9602283610d9c565b91507f4b59433a20436572746966696361746520616c7265616479207375626d69747460008301527f65640000000000000000000000000000000000000000000000000000000000006020830152604082019050919050565b610c0b81610df2565b82525050565b6000602082019050610c266000830184610a9f565b92915050565b6000602082019050610c416000830184610aae565b92915050565b60006020820190508181036000830152610c618184610abd565b905092915050565b60006080820190508181036000830152610c838187610abd565b9050610c926020830186610aae565b610c9f6040830185610a9f565b610cac6060830184610a9f565b95945050505050565b60006020820190508181036000830152610cce81610af6565b9050919050565b60006020820190508181036000830152610cee81610b5c565b9050919050565b60006020820190508181036000830152610d0e81610b9c565b9050919050565b6000602082019050610d2a6000830184610c02565b92915050565b6000604051905081810181811067ffffffffffffffff82111715610d5757610d56610f58565b5b8060405250919050565b600067ffffffffffffffff821115610d7c57610d7b610f58565b5b601f19601f8301169050602081019050919050565b600081519050919050565b600082825260208201905092915050565b6000610db882610dd2565b9050919050565b6000819050610dcd82610f98565b919050565b600073ffffffffffffffffffffffffffffffffffffffff82169050919050565b6000819050919050565b6000610e0782610dbf565b9050919050565b82818337600083830152505050565b60005b83811015610e3b578082015181840152602081019050610e20565b83811115610e4a576000848401525b50505050565b60006002820490506001821680610e6857607f821691505b60208210811415610e7c57610e7b610f29565b5b50919050565b6000610e8d82610df2565b91507fffffffffffffffffffffffffffffffffffffffffffffffffffffffffffffffff821415610ec057610ebf610ecb565b5b600182019050919050565b7f4e487b7100000000000000000000000000000000000000000000000000000000600052601160045260246000fd5b7f4e487b7100000000000000000000000000000000000000000000000000000000600052602160045260246000fd5b7f4e487b7100000000000000000000000000000000000000000000000000000000600052602260045260246000fd5b7f4e487b7100000000000000000000000000000000000000000000000000000000600052604160045260246000fd5b6000601f19601f8301169050919050565b60038110610fa957610fa8610efa565b5b50565b610fb581610dad565b8114610fc057600080fd5b50565b60038110610fd057600080fd5b50565b610fdc81610df2565b8114610fe757600080fd5b5056fea2646970667358221220a3d3068ccefb0c9c270bf8424415b0d55e38f10a9cbef4ef6db667df31f070a564736f6c63430008000033",
  "immutableReferences": {},
  "source": "// SPDX-License-Identifier: MIT\npragma solidity ^0.8.0;\n\ncontract KYC {\n    enum VerificationStatus {\n        Pending,\n        Approved,\n        Rejected\n    }\n\n    uint256 public certificateCount = 0;\n\n    struct Certificate {\n        string ipfsUrl;\n        VerificationStatus status;\n        address submittedBy;\n        address verifiedBy;\n    }\n\n    mapping(address => Certificate) public certificates;\n    address[] public industries;\n\n    event CertificateSubmitted(address indexed industry, string ipfsUrl);\n\n    event CertificateVerified(\n        address indexed government,\n        address indexed industry,\n        VerificationStatus status\n    );\n\n    modifier onlyPendingVerification(address industry) {\n        require(\n            certificates[industry].status == VerificationStatus.Pending,\n            \"KYC: Certificate not pending verification\"\n        );\n        _;\n    }\n\n    function submitCertificate(string memory ipfsUrl) external {\n    require(bytes(ipfsUrl).length > 0, \"KYC: IPFS URL cannot be empty\");\n    require(\n        certificates[msg.sender].submittedBy == address(0),\n        \"KYC: Certificate already submitted\"\n    );\n\n    certificates[msg.sender] = Certificate({\n        ipfsUrl: ipfsUrl,\n        status: VerificationStatus.Pending,\n        submittedBy: msg.sender,\n        verifiedBy: address(0)\n    });\n\n    certificateCount++;\n    industries.push(msg.sender);\n\n    emit CertificateSubmitted(msg.sender, ipfsUrl);\n}\n    function verifyCertificate(address industry, VerificationStatus status)\n        external\n        onlyPendingVerification(industry)\n    {\n        certificates[industry].status = status;\n        certificates[industry].verifiedBy = msg.sender;\n\n        emit CertificateVerified(msg.sender, industry, status);\n    }\n}\n",
  "sourcePath": "/home/tenshkumar-k/Documents/GitHub/Green-Chain-PLI-Hackathon-2.0/contracts/KYCprocess.sol",
  "compiler": {
    "name": "solc",
    "version": "0.8.0+commit.c7dfd78e.Emscripten.clang"
  },
  "schemaVersion": "3.4.16",
  "updatedAt": "2024-02-14T09:02:54.665Z",
  "networkType": "ethereum",
  "devdoc": {
    "kind": "dev",
    "methods": {},
    "version": 1
  },
  "userdoc": {
    "kind": "user",
    "methods": {},
    "version": 1
  }
}