{
  "contractName": "KYC",
  "abi": [
    {
      "anonymous": false,
      "inputs": [
        {
          "indexed": true,
          "internalType": "address",
          "name": "industry",
          "type": "address"
        },
        {
          "indexed": false,
          "internalType": "string",
          "name": "ipfsUrl",
          "type": "string"
        }
      ],
      "name": "CertificateSubmitted",
      "type": "event"
    },
    {
      "anonymous": false,
      "inputs": [
        {
          "indexed": true,
          "internalType": "address",
          "name": "government",
          "type": "address"
        },
        {
          "indexed": true,
          "internalType": "address",
          "name": "industry",
          "type": "address"
        },
        {
          "indexed": false,
          "internalType": "enum KYC.VerificationStatus",
          "name": "status",
          "type": "uint8"
        }
      ],
      "name": "CertificateVerified",
      "type": "event"
    },
    {
      "inputs": [],
      "name": "certificateCount",
      "outputs": [
        {
          "internalType": "uint256",
          "name": "",
          "type": "uint256"
        }
      ],
      "stateMutability": "view",
      "type": "function",
      "constant": true
    },
    {
      "inputs": [
        {
          "internalType": "address",
          "name": "",
          "type": "address"
        }
      ],
      "name": "certificates",
      "outputs": [
        {
          "internalType": "string",
          "name": "ipfsUrl",
          "type": "string"
        },
        {
          "internalType": "enum KYC.VerificationStatus",
          "name": "status",
          "type": "uint8"
        },
        {
          "internalType": "address",
          "name": "submittedBy",
          "type": "address"
        },
        {
          "internalType": "address",
          "name": "verifiedBy",
          "type": "address"
        }
      ],
      "stateMutability": "view",
      "type": "function",
      "constant": true
    },
    {
      "inputs": [
        {
          "internalType": "string",
          "name": "ipfsUrl",
          "type": "string"
        }
      ],
      "name": "submitCertificate",
      "outputs": [],
      "stateMutability": "nonpayable",
      "type": "function"
    },
    {
      "inputs": [
        {
          "internalType": "address",
          "name": "industry",
          "type": "address"
        },
        {
          "internalType": "enum KYC.VerificationStatus",
          "name": "status",
          "type": "uint8"
        }
      ],
      "name": "verifyCertificate",
      "outputs": [],
      "stateMutability": "nonpayable",
      "type": "function"
    }
  ],
  "bytecode": "0x60806040526000805534801561001457600080fd5b50610ed3806100246000396000f3fe608060405234801561001057600080fd5b506004361061004b5760003560e01c806216e526146100505780630e2126b21461008357806352d7b89c1461009f578063aa209301146100bd575b600080fd5b61006a600480360381019061006591906108de565b6100d9565b60405161007a9493929190610b33565b60405180910390f35b61009d60048036038101906100989190610907565b6101de565b005b6100a761045c565b6040516100b49190610bdf565b60405180910390f35b6100d760048036038101906100d29190610943565b610462565b005b60016020528060005260406000206000915090508060000180546100fc90610d1a565b80601f016020809104026020016040519081016040528092919081815260200182805461012890610d1a565b80156101755780601f1061014a57610100808354040283529160200191610175565b820191906000526020600020905b81548152906001019060200180831161015857829003601f168201915b5050505050908060010160009054906101000a900460ff16908060010160019054906101000a900473ffffffffffffffffffffffffffffffffffffffff16908060020160009054906101000a900473ffffffffffffffffffffffffffffffffffffffff16905084565b8160006002811115610219577f4e487b7100000000000000000000000000000000000000000000000000000000600052602160045260246000fd5b600160008373ffffffffffffffffffffffffffffffffffffffff1673ffffffffffffffffffffffffffffffffffffffff16815260200190815260200160002060010160009054906101000a900460ff1660028111156102a1577f4e487b7100000000000000000000000000000000000000000000000000000000600052602160045260246000fd5b146102e1576040517f08c379a00000000000000000000000000000000000000000000000000000000081526004016102d890610b7f565b60405180910390fd5b81600160008573ffffffffffffffffffffffffffffffffffffffff1673ffffffffffffffffffffffffffffffffffffffff16815260200190815260200160002060010160006101000a81548160ff0219169083600281111561036c577f4e487b7100000000000000000000000000000000000000000000000000000000600052602160045260246000fd5b021790555033600160008573ffffffffffffffffffffffffffffffffffffffff1673ffffffffffffffffffffffffffffffffffffffff16815260200190815260200160002060020160006101000a81548173ffffffffffffffffffffffffffffffffffffffff021916908373ffffffffffffffffffffffffffffffffffffffff1602179055508273ffffffffffffffffffffffffffffffffffffffff163373ffffffffffffffffffffffffffffffffffffffff167f773824696e363013fa0795129b6c117667f56a9e43b838c3ff076c2a0a80af768460405161044f9190610af6565b60405180910390a3505050565b60005481565b60008151116104a6576040517f08c379a000000000000000000000000000000000000000000000000000000000815260040161049d90610b9f565b60405180910390fd5b600073ffffffffffffffffffffffffffffffffffffffff16600160003373ffffffffffffffffffffffffffffffffffffffff1673ffffffffffffffffffffffffffffffffffffffff16815260200190815260200160002060010160019054906101000a900473ffffffffffffffffffffffffffffffffffffffff1673ffffffffffffffffffffffffffffffffffffffff1614610577576040517f08c379a000000000000000000000000000000000000000000000000000000000815260040161056e90610bbf565b60405180910390fd5b6040518060800160405280828152602001600060028111156105c2577f4e487b7100000000000000000000000000000000000000000000000000000000600052602160045260246000fd5b81526020013373ffffffffffffffffffffffffffffffffffffffff168152602001600073ffffffffffffffffffffffffffffffffffffffff16815250600160003373ffffffffffffffffffffffffffffffffffffffff1673ffffffffffffffffffffffffffffffffffffffff16815260200190815260200160002060008201518160000190805190602001906106599291906107a9565b5060208201518160010160006101000a81548160ff021916908360028111156106ab577f4e487b7100000000000000000000000000000000000000000000000000000000600052602160045260246000fd5b021790555060408201518160010160016101000a81548173ffffffffffffffffffffffffffffffffffffffff021916908373ffffffffffffffffffffffffffffffffffffffff16021790555060608201518160020160006101000a81548173ffffffffffffffffffffffffffffffffffffffff021916908373ffffffffffffffffffffffffffffffffffffffff16021790555090505060008081548092919061075390610d4c565b91905055503373ffffffffffffffffffffffffffffffffffffffff167f896c7f89049b10206b235707d3d1d91257c12ae5da94321b04e39842d3c4e16b8260405161079e9190610b11565b60405180910390a250565b8280546107b590610d1a565b90600052602060002090601f0160209004810192826107d7576000855561081e565b82601f106107f057805160ff191683800117855561081e565b8280016001018555821561081e579182015b8281111561081d578251825591602001919060010190610802565b5b50905061082b919061082f565b5090565b5b80821115610848576000816000905550600101610830565b5090565b600061085f61085a84610c2b565b610bfa565b90508281526020810184848401111561087757600080fd5b610882848285610cd8565b509392505050565b60008135905061089981610e76565b92915050565b6000813590506108ae81610e8d565b92915050565b600082601f8301126108c557600080fd5b81356108d584826020860161084c565b91505092915050565b6000602082840312156108f057600080fd5b60006108fe8482850161088a565b91505092915050565b6000806040838503121561091a57600080fd5b60006109288582860161088a565b92505060206109398582860161089f565b9150509250929050565b60006020828403121561095557600080fd5b600082013567ffffffffffffffff81111561096f57600080fd5b61097b848285016108b4565b91505092915050565b61098d81610c77565b82525050565b61099c81610cc6565b82525050565b60006109ad82610c5b565b6109b78185610c66565b93506109c7818560208601610ce7565b6109d081610e51565b840191505092915050565b60006109e8602983610c66565b91507f4b59433a204365727469666963617465206e6f742070656e64696e672076657260008301527f696669636174696f6e00000000000000000000000000000000000000000000006020830152604082019050919050565b6000610a4e601d83610c66565b91507f4b59433a20495046532055524c2063616e6e6f7420626520656d7074790000006000830152602082019050919050565b6000610a8e602283610c66565b91507f4b59433a20436572746966696361746520616c7265616479207375626d69747460008301527f65640000000000000000000000000000000000000000000000000000000000006020830152604082019050919050565b610af081610cbc565b82525050565b6000602082019050610b0b6000830184610993565b92915050565b60006020820190508181036000830152610b2b81846109a2565b905092915050565b60006080820190508181036000830152610b4d81876109a2565b9050610b5c6020830186610993565b610b696040830185610984565b610b766060830184610984565b95945050505050565b60006020820190508181036000830152610b98816109db565b9050919050565b60006020820190508181036000830152610bb881610a41565b9050919050565b60006020820190508181036000830152610bd881610a81565b9050919050565b6000602082019050610bf46000830184610ae7565b92915050565b6000604051905081810181811067ffffffffffffffff82111715610c2157610c20610e22565b5b8060405250919050565b600067ffffffffffffffff821115610c4657610c45610e22565b5b601f19601f8301169050602081019050919050565b600081519050919050565b600082825260208201905092915050565b6000610c8282610c9c565b9050919050565b6000819050610c9782610e62565b919050565b600073ffffffffffffffffffffffffffffffffffffffff82169050919050565b6000819050919050565b6000610cd182610c89565b9050919050565b82818337600083830152505050565b60005b83811015610d05578082015181840152602081019050610cea565b83811115610d14576000848401525b50505050565b60006002820490506001821680610d3257607f821691505b60208210811415610d4657610d45610df3565b5b50919050565b6000610d5782610cbc565b91507fffffffffffffffffffffffffffffffffffffffffffffffffffffffffffffffff821415610d8a57610d89610d95565b5b600182019050919050565b7f4e487b7100000000000000000000000000000000000000000000000000000000600052601160045260246000fd5b7f4e487b7100000000000000000000000000000000000000000000000000000000600052602160045260246000fd5b7f4e487b7100000000000000000000000000000000000000000000000000000000600052602260045260246000fd5b7f4e487b7100000000000000000000000000000000000000000000000000000000600052604160045260246000fd5b6000601f19601f8301169050919050565b60038110610e7357610e72610dc4565b5b50565b610e7f81610c77565b8114610e8a57600080fd5b50565b60038110610e9a57600080fd5b5056fea2646970667358221220624fb61198a4e264894f23e9d284ff9ae1afbbb85bfad0c0462e761a52a4c9b464736f6c63430008000033",
  "immutableReferences": {},
  "source": "// SPDX-License-Identifier: MIT\npragma solidity ^0.8.0;\n\ncontract KYC {\n    enum VerificationStatus {\n        Pending,\n        Approved,\n        Rejected\n    }\n\n    uint256 public certificateCount = 0;\n\n    struct Certificate {\n        string ipfsUrl;\n        VerificationStatus status;\n        address submittedBy;\n        address verifiedBy;\n    }\n\n    mapping(address => Certificate) public certificates;\n\n    event CertificateSubmitted(address indexed industry, string ipfsUrl);\n\n    event CertificateVerified(\n        address indexed government,\n        address indexed industry,\n        VerificationStatus status\n    );\n\n    modifier onlyPendingVerification(address industry) {\n        require(\n            certificates[industry].status == VerificationStatus.Pending,\n            \"KYC: Certificate not pending verification\"\n        );\n        _;\n    }\n\n    function submitCertificate(string memory ipfsUrl) external {\n    require(bytes(ipfsUrl).length > 0, \"KYC: IPFS URL cannot be empty\");\n    require(\n        certificates[msg.sender].submittedBy == address(0),\n        \"KYC: Certificate already submitted\"\n    );\n\n    certificates[msg.sender] = Certificate({\n        ipfsUrl: ipfsUrl,\n        status: VerificationStatus.Pending,\n        submittedBy: msg.sender,\n        verifiedBy: address(0)\n    });\n\n    certificateCount++;\n\n    emit CertificateSubmitted(msg.sender, ipfsUrl);\n}\n    function verifyCertificate(address industry, VerificationStatus status)\n        external\n        onlyPendingVerification(industry)\n    {\n        certificates[industry].status = status;\n        certificates[industry].verifiedBy = msg.sender;\n\n        emit CertificateVerified(msg.sender, industry, status);\n    }\n}\n",
  "sourcePath": "/home/tenshkumar-k/Documents/GitHub/Green-Chain-PLI-Hackathon-2.0/contracts/KYCprocess.sol",
  "compiler": {
    "name": "solc",
    "version": "0.8.0+commit.c7dfd78e.Emscripten.clang"
  },
  "schemaVersion": "3.4.16",
  "updatedAt": "2024-02-14T05:25:04.385Z",
  "networkType": "ethereum",
  "devdoc": {
    "kind": "dev",
    "methods": {},
    "version": 1
  },
  "userdoc": {
    "kind": "user",
    "methods": {},
    "version": 1
  }
}