{
  "contractName": "UserAuth",
  "abi": [
    {
      "anonymous": false,
      "inputs": [
        {
          "indexed": true,
          "internalType": "address",
          "name": "walletId",
          "type": "address"
        },
        {
          "indexed": true,
          "internalType": "string",
          "name": "name",
          "type": "string"
        },
        {
          "indexed": true,
          "internalType": "string",
          "name": "privilege",
          "type": "string"
        },
        {
          "indexed": false,
          "internalType": "string",
          "name": "authority",
          "type": "string"
        }
      ],
      "name": "UserRegistered",
      "type": "event"
    },
    {
      "inputs": [
        {
          "internalType": "address",
          "name": "",
          "type": "address"
        }
      ],
      "name": "Users",
      "outputs": [
        {
          "internalType": "string",
          "name": "name",
          "type": "string"
        },
        {
          "internalType": "string",
          "name": "privilege",
          "type": "string"
        },
        {
          "internalType": "string",
          "name": "authority",
          "type": "string"
        }
      ],
      "stateMutability": "view",
      "type": "function",
      "constant": true
    },
    {
      "inputs": [],
      "name": "userCount",
      "outputs": [
        {
          "internalType": "uint256",
          "name": "",
          "type": "uint256"
        }
      ],
      "stateMutability": "view",
      "type": "function",
      "constant": true
    },
    {
      "inputs": [
        {
          "internalType": "address",
          "name": "_userAddress",
          "type": "address"
        }
      ],
      "name": "checkUserExists",
      "outputs": [
        {
          "internalType": "bool",
          "name": "",
          "type": "bool"
        }
      ],
      "stateMutability": "view",
      "type": "function",
      "constant": true
    },
    {
      "inputs": [
        {
          "internalType": "address",
          "name": "_walletId",
          "type": "address"
        },
        {
          "internalType": "string",
          "name": "_name",
          "type": "string"
        },
        {
          "internalType": "string",
          "name": "_privilege",
          "type": "string"
        },
        {
          "internalType": "string",
          "name": "_authority",
          "type": "string"
        }
      ],
      "name": "setUser",
      "outputs": [],
      "stateMutability": "nonpayable",
      "type": "function"
    }
  ],
  "bytecode": "0x608060405234801561001057600080fd5b50610f57806100206000396000f3fe608060405234801561001057600080fd5b506004361061004c5760003560e01c806307973ccf14610051578063133f50f51461006f5780631d201a891461009f57806399b956a0146100bb575b600080fd5b6100596100ed565b60405161006691906105c7565b60405180910390f35b61008960048036038101906100849190610654565b6100f3565b604051610096919061069c565b60405180910390f35b6100b960048036038101906100b491906107fd565b6102b4565b005b6100d560048036038101906100d09190610654565b6103ec565b6040516100e493929190610940565b60405180910390f35b60005481565b6000604051602001610104906109e3565b60405160208183030381529060405280519060200120600160008473ffffffffffffffffffffffffffffffffffffffff1673ffffffffffffffffffffffffffffffffffffffff16815260200190815260200160002060010160405160200161016c9190610af0565b604051602081830303815290604052805190602001201480610218575060405160200161019890610b53565b60405160208183030381529060405280519060200120600160008473ffffffffffffffffffffffffffffffffffffffff1673ffffffffffffffffffffffffffffffffffffffff1681526020019081526020016000206001016040516020016102009190610af0565b60405160208183030381529060405280519060200120145b806102ad575060405160200161022d90610bb4565b60405160208183030381529060405280519060200120600160008473ffffffffffffffffffffffffffffffffffffffff1673ffffffffffffffffffffffffffffffffffffffff1681526020019081526020016000206001016040516020016102959190610af0565b60405160208183030381529060405280519060200120145b9050919050565b604051806060016040528084815260200183815260200182815250600160008673ffffffffffffffffffffffffffffffffffffffff1673ffffffffffffffffffffffffffffffffffffffff16815260200190815260200160002060008201518160000190816103239190610d60565b5060208201518160010190816103399190610d60565b50604082015181600201908161034f9190610d60565b5090505060016000808282546103659190610e61565b925050819055508160405161037a9190610ee8565b6040518091039020836040516103909190610ee8565b60405180910390208573ffffffffffffffffffffffffffffffffffffffff167f509c70f523067009f7db7f46db6956d7af8b679323680dc3821a8bad001ac1e1846040516103de9190610eff565b60405180910390a450505050565b600160205280600052604060002060009150905080600001805461040f90610a27565b80601f016020809104026020016040519081016040528092919081815260200182805461043b90610a27565b80156104885780601f1061045d57610100808354040283529160200191610488565b820191906000526020600020905b81548152906001019060200180831161046b57829003601f168201915b50505050509080600101805461049d90610a27565b80601f01602080910402602001604051908101604052809291908181526020018280546104c990610a27565b80156105165780601f106104eb57610100808354040283529160200191610516565b820191906000526020600020905b8154815290600101906020018083116104f957829003601f168201915b50505050509080600201805461052b90610a27565b80601f016020809104026020016040519081016040528092919081815260200182805461055790610a27565b80156105a45780601f10610579576101008083540402835291602001916105a4565b820191906000526020600020905b81548152906001019060200180831161058757829003601f168201915b5050505050905083565b6000819050919050565b6105c1816105ae565b82525050565b60006020820190506105dc60008301846105b8565b92915050565b6000604051905090565b600080fd5b600080fd5b600073ffffffffffffffffffffffffffffffffffffffff82169050919050565b6000610621826105f6565b9050919050565b61063181610616565b811461063c57600080fd5b50565b60008135905061064e81610628565b92915050565b60006020828403121561066a576106696105ec565b5b60006106788482850161063f565b91505092915050565b60008115159050919050565b61069681610681565b82525050565b60006020820190506106b1600083018461068d565b92915050565b600080fd5b600080fd5b6000601f19601f8301169050919050565b7f4e487b7100000000000000000000000000000000000000000000000000000000600052604160045260246000fd5b61070a826106c1565b810181811067ffffffffffffffff82111715610729576107286106d2565b5b80604052505050565b600061073c6105e2565b90506107488282610701565b919050565b600067ffffffffffffffff821115610768576107676106d2565b5b610771826106c1565b9050602081019050919050565b82818337600083830152505050565b60006107a061079b8461074d565b610732565b9050828152602081018484840111156107bc576107bb6106bc565b5b6107c784828561077e565b509392505050565b600082601f8301126107e4576107e36106b7565b5b81356107f484826020860161078d565b91505092915050565b60008060008060808587031215610817576108166105ec565b5b60006108258782880161063f565b945050602085013567ffffffffffffffff811115610846576108456105f1565b5b610852878288016107cf565b935050604085013567ffffffffffffffff811115610873576108726105f1565b5b61087f878288016107cf565b925050606085013567ffffffffffffffff8111156108a05761089f6105f1565b5b6108ac878288016107cf565b91505092959194509250565b600081519050919050565b600082825260208201905092915050565b60005b838110156108f25780820151818401526020810190506108d7565b83811115610901576000848401525b50505050565b6000610912826108b8565b61091c81856108c3565b935061092c8185602086016108d4565b610935816106c1565b840191505092915050565b6000606082019050818103600083015261095a8186610907565b9050818103602083015261096e8185610907565b905081810360408301526109828184610907565b9050949350505050565b600081905092915050565b7f676f7665726e6d656e7400000000000000000000000000000000000000000000600082015250565b60006109cd600a8361098c565b91506109d882610997565b600a82019050919050565b60006109ee826109c0565b9150819050919050565b7f4e487b7100000000000000000000000000000000000000000000000000000000600052602260045260246000fd5b60006002820490506001821680610a3f57607f821691505b602082108103610a5257610a516109f8565b5b50919050565b60008190508160005260206000209050919050565b60008154610a7a81610a27565b610a84818661098c565b94506001821660008114610a9f5760018114610ab457610ae7565b60ff1983168652811515820286019350610ae7565b610abd85610a58565b60005b83811015610adf57815481890152600182019150602081019050610ac0565b838801955050505b50505092915050565b6000610afc8284610a6d565b915081905092915050565b7f696e647573747279000000000000000000000000000000000000000000000000600082015250565b6000610b3d60088361098c565b9150610b4882610b07565b600882019050919050565b6000610b5e82610b30565b9150819050919050565b7f696e646976696475616c00000000000000000000000000000000000000000000600082015250565b6000610b9e600a8361098c565b9150610ba982610b68565b600a82019050919050565b6000610bbf82610b91565b9150819050919050565b60006020601f8301049050919050565b600082821b905092915050565b600060088302610c167fffffffffffffffffffffffffffffffffffffffffffffffffffffffffffffffff82610bd9565b610c208683610bd9565b95508019841693508086168417925050509392505050565b6000819050919050565b6000610c5d610c58610c53846105ae565b610c38565b6105ae565b9050919050565b6000819050919050565b610c7783610c42565b610c8b610c8382610c64565b848454610be6565b825550505050565b600090565b610ca0610c93565b610cab818484610c6e565b505050565b5b81811015610ccf57610cc4600082610c98565b600181019050610cb1565b5050565b601f821115610d1457610ce581610a58565b610cee84610bc9565b81016020851015610cfd578190505b610d11610d0985610bc9565b830182610cb0565b50505b505050565b600082821c905092915050565b6000610d3760001984600802610d19565b1980831691505092915050565b6000610d508383610d26565b9150826002028217905092915050565b610d69826108b8565b67ffffffffffffffff811115610d8257610d816106d2565b5b610d8c8254610a27565b610d97828285610cd3565b600060209050601f831160018114610dca5760008415610db8578287015190505b610dc28582610d44565b865550610e2a565b601f198416610dd886610a58565b60005b82811015610e0057848901518255600182019150602085019450602081019050610ddb565b86831015610e1d5784890151610e19601f891682610d26565b8355505b6001600288020188555050505b505050505050565b7f4e487b7100000000000000000000000000000000000000000000000000000000600052601160045260246000fd5b6000610e6c826105ae565b9150610e77836105ae565b9250827fffffffffffffffffffffffffffffffffffffffffffffffffffffffffffffffff03821115610eac57610eab610e32565b5b828201905092915050565b6000610ec2826108b8565b610ecc818561098c565b9350610edc8185602086016108d4565b80840191505092915050565b6000610ef48284610eb7565b915081905092915050565b60006020820190508181036000830152610f198184610907565b90509291505056fea26469706673582212201eb9536863935a1a9611c0288dec06fa7c4f405cbbf14ea885336c72b7b3f57464736f6c634300080f0033",
  "immutableReferences": {},
  "source": "// SPDX-License-Identifier: MIT\r\npragma solidity 0.8.15;\r\n\r\ncontract UserAuth {\r\n    uint public userCount;\r\n\r\n    struct User {\r\n        string name;\r\n        string privilege;\r\n        string authority;\r\n    }\r\n\r\n    event UserRegistered(\r\n        address indexed walletId,\r\n        string indexed name,\r\n        string indexed privilege,\r\n        string authority\r\n    );\r\n\r\n    mapping(address => User) public Users;\r\n\r\n    function checkUserExists(address _userAddress) public view returns (bool) {\r\n        return\r\n            keccak256(abi.encodePacked(Users[_userAddress].privilege)) ==\r\n            keccak256(abi.encodePacked(\"government\")) ||\r\n            keccak256(abi.encodePacked(Users[_userAddress].privilege)) ==\r\n            keccak256(abi.encodePacked(\"industry\")) ||\r\n            keccak256(abi.encodePacked(Users[_userAddress].privilege)) ==\r\n            keccak256(abi.encodePacked(\"individual\"));\r\n    }\r\n\r\n    function setUser(\r\n        address _walletId,\r\n        string memory _name,\r\n        string memory _privilege,\r\n        string memory _authority\r\n    ) public {\r\n        Users[_walletId] = User(_name, _privilege, _authority);\r\n        userCount += 1;\r\n        emit UserRegistered(_walletId, _name, _privilege, _authority);\r\n    }\r\n}\r\n",
  "sourcePath": "C:\\Users\\mukil\\OneDrive\\Desktop\\Github Repo\\Green-Chain-PLI-Hackathon-2.0\\contracts\\UserAuth.sol",
  "compiler": {
    "name": "solc",
    "version": "0.8.15+commit.e14f2714.Emscripten.clang"
  },
  "schemaVersion": "3.4.12",
  "updatedAt": "2023-12-03T14:37:31.303Z",
  "networkType": "ethereum",
  "devdoc": {
    "kind": "dev",
    "methods": {},
    "version": 1
  },
  "userdoc": {
    "kind": "user",
    "methods": {},
    "version": 1
  }
}