{
  "contractName": "Emission",
  "abi": [
    {
      "anonymous": false,
      "inputs": [
        {
          "indexed": true,
          "internalType": "address",
          "name": "wallet_id",
          "type": "address"
        },
        {
          "indexed": true,
          "internalType": "string",
          "name": "carbon",
          "type": "string"
        },
        {
          "indexed": true,
          "internalType": "string",
          "name": "date",
          "type": "string"
        },
        {
          "indexed": false,
          "internalType": "uint256",
          "name": "fees",
          "type": "uint256"
        }
      ],
      "name": "EmissionData",
      "type": "event"
    },
    {
      "inputs": [],
      "name": "dataCount",
      "outputs": [
        {
          "internalType": "uint256",
          "name": "",
          "type": "uint256"
        }
      ],
      "stateMutability": "view",
      "type": "function",
      "constant": true
    },
    {
      "inputs": [
        {
          "internalType": "uint256",
          "name": "",
          "type": "uint256"
        }
      ],
      "name": "emmis",
      "outputs": [
        {
          "internalType": "address",
          "name": "wallet_id",
          "type": "address"
        },
        {
          "internalType": "string",
          "name": "carbon",
          "type": "string"
        },
        {
          "internalType": "string",
          "name": "date",
          "type": "string"
        },
        {
          "internalType": "uint256",
          "name": "fees",
          "type": "uint256"
        }
      ],
      "stateMutability": "view",
      "type": "function",
      "constant": true
    },
    {
      "inputs": [
        {
          "internalType": "address",
          "name": "_walletID",
          "type": "address"
        },
        {
          "internalType": "string",
          "name": "_carbon",
          "type": "string"
        },
        {
          "internalType": "string",
          "name": "_date",
          "type": "string"
        }
      ],
      "name": "createEmissionData",
      "outputs": [],
      "stateMutability": "payable",
      "type": "function",
      "payable": true
    },
    {
      "inputs": [
        {
          "internalType": "address payable",
          "name": "_govId",
          "type": "address"
        }
      ],
      "name": "collectFee",
      "outputs": [],
      "stateMutability": "nonpayable",
      "type": "function"
    }
  ],
  "bytecode": "0x60806040526000805534801561001457600080fd5b50610db7806100246000396000f3fe60806040526004361061003f5760003560e01c80630c345808146100445780635da40c471461008457806369b59e75146100af5780638376aef0146100d8575b600080fd5b34801561005057600080fd5b5061006b60048036038101906100669190610500565b6100f4565b60405161007b9493929190610616565b60405180910390f35b34801561009057600080fd5b50610099610254565b6040516100a69190610669565b60405180910390f35b3480156100bb57600080fd5b506100d660048036038101906100d191906106c2565b61025a565b005b6100f260048036038101906100ed9190610850565b610312565b005b60016020528060005260406000206000915090508060000160009054906101000a900473ffffffffffffffffffffffffffffffffffffffff169080600101805461013d9061090a565b80601f01602080910402602001604051908101604052809291908181526020018280546101699061090a565b80156101b65780601f1061018b576101008083540402835291602001916101b6565b820191906000526020600020905b81548152906001019060200180831161019957829003601f168201915b5050505050908060020180546101cb9061090a565b80601f01602080910402602001604051908101604052809291908181526020018280546101f79061090a565b80156102445780601f1061021957610100808354040283529160200191610244565b820191906000526020600020905b81548152906001019060200180831161022757829003601f168201915b5050505050908060030154905084565b60005481565b8073ffffffffffffffffffffffffffffffffffffffff163373ffffffffffffffffffffffffffffffffffffffff16146102c8576040517f08c379a00000000000000000000000000000000000000000000000000000000081526004016102bf906109ad565b60405180910390fd5b8073ffffffffffffffffffffffffffffffffffffffff166108fc479081150290604051600060405180830381858888f1935050505015801561030e573d6000803e3d6000fd5b5050565b60003411610355576040517f08c379a000000000000000000000000000000000000000000000000000000000815260040161034c90610a19565b60405180910390fd5b60008081548092919061036790610a68565b919050555060405180608001604052808473ffffffffffffffffffffffffffffffffffffffff16815260200183815260200182815260200134815250600160008054815260200190815260200160002060008201518160000160006101000a81548173ffffffffffffffffffffffffffffffffffffffff021916908373ffffffffffffffffffffffffffffffffffffffff16021790555060208201518160010190816104139190610c5c565b5060408201518160020190816104299190610c5c565b5060608201518160030155905050806040516104459190610d6a565b60405180910390208260405161045b9190610d6a565b60405180910390208473ffffffffffffffffffffffffffffffffffffffff167f7b825f9c39d0e80158251342653d426fd61076a41eb60ef6202376c66e10199c346040516104a99190610669565b60405180910390a4505050565b6000604051905090565b600080fd5b600080fd5b6000819050919050565b6104dd816104ca565b81146104e857600080fd5b50565b6000813590506104fa816104d4565b92915050565b600060208284031215610516576105156104c0565b5b6000610524848285016104eb565b91505092915050565b600073ffffffffffffffffffffffffffffffffffffffff82169050919050565b60006105588261052d565b9050919050565b6105688161054d565b82525050565b600081519050919050565b600082825260208201905092915050565b60005b838110156105a857808201518184015260208101905061058d565b838111156105b7576000848401525b50505050565b6000601f19601f8301169050919050565b60006105d98261056e565b6105e38185610579565b93506105f381856020860161058a565b6105fc816105bd565b840191505092915050565b610610816104ca565b82525050565b600060808201905061062b600083018761055f565b818103602083015261063d81866105ce565b9050818103604083015261065181856105ce565b90506106606060830184610607565b95945050505050565b600060208201905061067e6000830184610607565b92915050565b600061068f8261052d565b9050919050565b61069f81610684565b81146106aa57600080fd5b50565b6000813590506106bc81610696565b92915050565b6000602082840312156106d8576106d76104c0565b5b60006106e6848285016106ad565b91505092915050565b6106f88161054d565b811461070357600080fd5b50565b600081359050610715816106ef565b92915050565b600080fd5b600080fd5b7f4e487b7100000000000000000000000000000000000000000000000000000000600052604160045260246000fd5b61075d826105bd565b810181811067ffffffffffffffff8211171561077c5761077b610725565b5b80604052505050565b600061078f6104b6565b905061079b8282610754565b919050565b600067ffffffffffffffff8211156107bb576107ba610725565b5b6107c4826105bd565b9050602081019050919050565b82818337600083830152505050565b60006107f36107ee846107a0565b610785565b90508281526020810184848401111561080f5761080e610720565b5b61081a8482856107d1565b509392505050565b600082601f8301126108375761083661071b565b5b81356108478482602086016107e0565b91505092915050565b600080600060608486031215610869576108686104c0565b5b600061087786828701610706565b935050602084013567ffffffffffffffff811115610898576108976104c5565b5b6108a486828701610822565b925050604084013567ffffffffffffffff8111156108c5576108c46104c5565b5b6108d186828701610822565b9150509250925092565b7f4e487b7100000000000000000000000000000000000000000000000000000000600052602260045260246000fd5b6000600282049050600182168061092257607f821691505b602082108103610935576109346108db565b5b50919050565b7f4f6e6c7920617574686f72697a656420656e746974792063616e20636f6c6c6560008201527f6374206665657300000000000000000000000000000000000000000000000000602082015250565b6000610997602783610579565b91506109a28261093b565b604082019050919050565b600060208201905081810360008301526109c68161098a565b9050919050565b7f466565732073686f756c642062652067726561746572207468616e2030000000600082015250565b6000610a03601d83610579565b9150610a0e826109cd565b602082019050919050565b60006020820190508181036000830152610a32816109f6565b9050919050565b7f4e487b7100000000000000000000000000000000000000000000000000000000600052601160045260246000fd5b6000610a73826104ca565b91507fffffffffffffffffffffffffffffffffffffffffffffffffffffffffffffffff8203610aa557610aa4610a39565b5b600182019050919050565b60008190508160005260206000209050919050565b60006020601f8301049050919050565b600082821b905092915050565b600060088302610b127fffffffffffffffffffffffffffffffffffffffffffffffffffffffffffffffff82610ad5565b610b1c8683610ad5565b95508019841693508086168417925050509392505050565b6000819050919050565b6000610b59610b54610b4f846104ca565b610b34565b6104ca565b9050919050565b6000819050919050565b610b7383610b3e565b610b87610b7f82610b60565b848454610ae2565b825550505050565b600090565b610b9c610b8f565b610ba7818484610b6a565b505050565b5b81811015610bcb57610bc0600082610b94565b600181019050610bad565b5050565b601f821115610c1057610be181610ab0565b610bea84610ac5565b81016020851015610bf9578190505b610c0d610c0585610ac5565b830182610bac565b50505b505050565b600082821c905092915050565b6000610c3360001984600802610c15565b1980831691505092915050565b6000610c4c8383610c22565b9150826002028217905092915050565b610c658261056e565b67ffffffffffffffff811115610c7e57610c7d610725565b5b610c88825461090a565b610c93828285610bcf565b600060209050601f831160018114610cc65760008415610cb4578287015190505b610cbe8582610c40565b865550610d26565b601f198416610cd486610ab0565b60005b82811015610cfc57848901518255600182019150602085019450602081019050610cd7565b86831015610d195784890151610d15601f891682610c22565b8355505b6001600288020188555050505b505050505050565b600081905092915050565b6000610d448261056e565b610d4e8185610d2e565b9350610d5e81856020860161058a565b80840191505092915050565b6000610d768284610d39565b91508190509291505056fea26469706673582212204021c84df112dce0880e5dcae7d07b4681790943c41ea1ffd57e632e74701ef764736f6c634300080f0033",
  "immutableReferences": {},
  "source": "// SPDX-License-Identifier: MIT\npragma solidity 0.8.15;\n\ncontract Emission {\n    uint256 public dataCount = 0;\n    \n    struct Data {\n        address wallet_id;\n        string carbon;\n        string date;\n        uint fees;\n    }\n\n    event EmissionData(address indexed wallet_id, string indexed carbon, string indexed date, uint fees);\n\n    mapping(uint256 => Data) public emmis;\n\n    function createEmissionData(address _walletID, string memory _carbon, string memory _date) public payable {\n        require(msg.value > 0, \"Fees should be greater than 0\");\n\n        dataCount++;\n        emmis[dataCount] = Data(_walletID, _carbon, _date, msg.value);\n        emit EmissionData(_walletID, _carbon, _date, msg.value);\n    }\n\n    function collectFee(address payable _govId) public {\n        require(msg.sender == _govId, \"Only authorized entity can collect fees\");\n        \n        _govId.transfer(address(this).balance);\n    }\n\n}",
  "sourcePath": "/home/tenshkumar-k/Documents/GitHub/Green-Chain-PLI-Hackathon-2.0/contracts/Emission.sol",
  "compiler": {
    "name": "solc",
    "version": "0.8.15+commit.e14f2714.Emscripten.clang"
  },
  "schemaVersion": "3.4.16",
  "updatedAt": "2023-12-04T08:08:49.501Z",
  "networkType": "ethereum",
  "devdoc": {
    "kind": "dev",
    "methods": {},
    "version": 1
  },
  "userdoc": {
    "kind": "user",
    "methods": {},
    "version": 1
  }
}