{
  "contractName": "Emission",
  "abi": [
    {
      "anonymous": false,
      "inputs": [
        {
          "indexed": true,
          "internalType": "address",
          "name": "wallet_id",
          "type": "address"
        },
        {
          "indexed": true,
          "internalType": "string",
          "name": "carbon",
          "type": "string"
        },
        {
          "indexed": true,
          "internalType": "string",
          "name": "date",
          "type": "string"
        },
        {
          "indexed": false,
          "internalType": "uint256",
          "name": "fees",
          "type": "uint256"
        }
      ],
      "name": "EmissionData",
      "type": "event"
    },
    {
      "inputs": [],
      "name": "dataCount",
      "outputs": [
        {
          "internalType": "uint256",
          "name": "",
          "type": "uint256"
        }
      ],
      "stateMutability": "view",
      "type": "function",
      "constant": true
    },
    {
      "inputs": [
        {
          "internalType": "uint256",
          "name": "",
          "type": "uint256"
        }
      ],
      "name": "emmis",
      "outputs": [
        {
          "internalType": "address",
          "name": "wallet_id",
          "type": "address"
        },
        {
          "internalType": "string",
          "name": "carbon",
          "type": "string"
        },
        {
          "internalType": "string",
          "name": "date",
          "type": "string"
        },
        {
          "internalType": "uint256",
          "name": "fees",
          "type": "uint256"
        }
      ],
      "stateMutability": "view",
      "type": "function",
      "constant": true
    },
    {
      "inputs": [
        {
          "internalType": "address",
          "name": "_walletID",
          "type": "address"
        },
        {
          "internalType": "string",
          "name": "_carbon",
          "type": "string"
        },
        {
          "internalType": "string",
          "name": "_date",
          "type": "string"
        }
      ],
      "name": "createEmissionData",
      "outputs": [],
      "stateMutability": "payable",
      "type": "function",
      "payable": true
    },
    {
      "inputs": [
        {
          "internalType": "address payable",
          "name": "_govId",
          "type": "address"
        }
      ],
      "name": "collectFee",
      "outputs": [],
      "stateMutability": "nonpayable",
      "type": "function"
    }
  ],
  "bytecode": "0x60806040526000805534801561001457600080fd5b50610b7e806100246000396000f3fe60806040526004361061003f5760003560e01c80630c345808146100445780635da40c471461008457806369b59e75146100af5780638376aef0146100d8575b600080fd5b34801561005057600080fd5b5061006b600480360381019061006691906106b6565b6100f4565b60405161007b9493929190610824565b60405180910390f35b34801561009057600080fd5b50610099610254565b6040516100a691906108b7565b60405180910390f35b3480156100bb57600080fd5b506100d660048036038101906100d1919061060e565b61025a565b005b6100f260048036038101906100ed9190610637565b610312565b005b60016020528060005260406000206000915090508060000160009054906101000a900473ffffffffffffffffffffffffffffffffffffffff169080600101805461013d906109ea565b80601f0160208091040260200160405190810160405280929190818152602001828054610169906109ea565b80156101b65780601f1061018b576101008083540402835291602001916101b6565b820191906000526020600020905b81548152906001019060200180831161019957829003601f168201915b5050505050908060020180546101cb906109ea565b80601f01602080910402602001604051908101604052809291908181526020018280546101f7906109ea565b80156102445780601f1061021957610100808354040283529160200191610244565b820191906000526020600020905b81548152906001019060200180831161022757829003601f168201915b5050505050908060030154905084565b60005481565b8073ffffffffffffffffffffffffffffffffffffffff163373ffffffffffffffffffffffffffffffffffffffff16146102c8576040517f08c379a00000000000000000000000000000000000000000000000000000000081526004016102bf90610877565b60405180910390fd5b8073ffffffffffffffffffffffffffffffffffffffff166108fc479081150290604051600060405180830381858888f1935050505015801561030e573d6000803e3d6000fd5b5050565b60003411610355576040517f08c379a000000000000000000000000000000000000000000000000000000000815260040161034c90610897565b60405180910390fd5b60008081548092919061036790610a1c565b919050555060405180608001604052808473ffffffffffffffffffffffffffffffffffffffff16815260200183815260200182815260200134815250600160008054815260200190815260200160002060008201518160000160006101000a81548173ffffffffffffffffffffffffffffffffffffffff021916908373ffffffffffffffffffffffffffffffffffffffff160217905550602082015181600101908051906020019061041a9291906104c4565b5060408201518160020190805190602001906104379291906104c4565b506060820151816003015590505080604051610453919061080d565b604051809103902082604051610469919061080d565b60405180910390208473ffffffffffffffffffffffffffffffffffffffff167f7b825f9c39d0e80158251342653d426fd61076a41eb60ef6202376c66e10199c346040516104b791906108b7565b60405180910390a4505050565b8280546104d0906109ea565b90600052602060002090601f0160209004810192826104f25760008555610539565b82601f1061050b57805160ff1916838001178555610539565b82800160010185558215610539579182015b8281111561053857825182559160200191906001019061051d565b5b509050610546919061054a565b5090565b5b8082111561056357600081600090555060010161054b565b5090565b600061057a61057584610903565b6108d2565b90508281526020810184848401111561059257600080fd5b61059d8482856109a8565b509392505050565b6000813590506105b481610b03565b92915050565b6000813590506105c981610b1a565b92915050565b600082601f8301126105e057600080fd5b81356105f0848260208601610567565b91505092915050565b60008135905061060881610b31565b92915050565b60006020828403121561062057600080fd5b600061062e848285016105ba565b91505092915050565b60008060006060848603121561064c57600080fd5b600061065a868287016105a5565b935050602084013567ffffffffffffffff81111561067757600080fd5b610683868287016105cf565b925050604084013567ffffffffffffffff8111156106a057600080fd5b6106ac868287016105cf565b9150509250925092565b6000602082840312156106c857600080fd5b60006106d6848285016105f9565b91505092915050565b6106e88161095a565b82525050565b60006106f982610933565b610703818561093e565b93506107138185602086016109b7565b61071c81610af2565b840191505092915050565b600061073282610933565b61073c818561094f565b935061074c8185602086016109b7565b80840191505092915050565b600061076560278361093e565b91507f4f6e6c7920617574686f72697a656420656e746974792063616e20636f6c6c6560008301527f63742066656573000000000000000000000000000000000000000000000000006020830152604082019050919050565b60006107cb601d8361093e565b91507f466565732073686f756c642062652067726561746572207468616e20300000006000830152602082019050919050565b6108078161099e565b82525050565b60006108198284610727565b915081905092915050565b600060808201905061083960008301876106df565b818103602083015261084b81866106ee565b9050818103604083015261085f81856106ee565b905061086e60608301846107fe565b95945050505050565b6000602082019050818103600083015261089081610758565b9050919050565b600060208201905081810360008301526108b0816107be565b9050919050565b60006020820190506108cc60008301846107fe565b92915050565b6000604051905081810181811067ffffffffffffffff821117156108f9576108f8610ac3565b5b8060405250919050565b600067ffffffffffffffff82111561091e5761091d610ac3565b5b601f19601f8301169050602081019050919050565b600081519050919050565b600082825260208201905092915050565b600081905092915050565b60006109658261097e565b9050919050565b60006109778261097e565b9050919050565b600073ffffffffffffffffffffffffffffffffffffffff82169050919050565b6000819050919050565b82818337600083830152505050565b60005b838110156109d55780820151818401526020810190506109ba565b838111156109e4576000848401525b50505050565b60006002820490506001821680610a0257607f821691505b60208210811415610a1657610a15610a94565b5b50919050565b6000610a278261099e565b91507fffffffffffffffffffffffffffffffffffffffffffffffffffffffffffffffff821415610a5a57610a59610a65565b5b600182019050919050565b7f4e487b7100000000000000000000000000000000000000000000000000000000600052601160045260246000fd5b7f4e487b7100000000000000000000000000000000000000000000000000000000600052602260045260246000fd5b7f4e487b7100000000000000000000000000000000000000000000000000000000600052604160045260246000fd5b6000601f19601f8301169050919050565b610b0c8161095a565b8114610b1757600080fd5b50565b610b238161096c565b8114610b2e57600080fd5b50565b610b3a8161099e565b8114610b4557600080fd5b5056fea2646970667358221220be569898f8b903ecb49455fdf16ca457234d458e27dde331c5c1b7b79a257b3864736f6c63430008000033",
  "immutableReferences": {},
  "source": "// SPDX-License-Identifier: MIT\npragma solidity ^0.8.0;\n\ncontract Emission {\n    uint256 public dataCount = 0;\n    \n    struct Data {\n        address wallet_id;\n        string carbon;\n        string date;\n        uint fees;\n    }\n\n    event EmissionData(address indexed wallet_id, string indexed carbon, string indexed date, uint fees);\n\n    mapping(uint256 => Data) public emmis;\n\n    function createEmissionData(address _walletID, string memory _carbon, string memory _date) public payable {\n        require(msg.value > 0, \"Fees should be greater than 0\");\n\n        dataCount++;\n        emmis[dataCount] = Data(_walletID, _carbon, _date, msg.value);\n        emit EmissionData(_walletID, _carbon, _date, msg.value);\n    }\n\n    function collectFee(address payable _govId) public {\n        require(msg.sender == _govId, \"Only authorized entity can collect fees\");\n        \n        _govId.transfer(address(this).balance);\n    }\n\n}",
  "sourcePath": "/home/tenshkumar-k/Documents/GitHub/Green-Chain-PLI-Hackathon-2.0/contracts/Emission.sol",
  "compiler": {
    "name": "solc",
    "version": "0.8.0+commit.c7dfd78e.Emscripten.clang"
  },
  "schemaVersion": "3.4.16",
  "updatedAt": "2024-02-14T10:12:49.785Z",
  "networkType": "ethereum",
  "devdoc": {
    "kind": "dev",
    "methods": {},
    "version": 1
  },
  "userdoc": {
    "kind": "user",
    "methods": {},
    "version": 1
  }
}