{
  "contractName": "GreenCreditToken",
  "abi": [
    {
      "inputs": [
        {
          "internalType": "uint256",
          "name": "initTokenPrice",
          "type": "uint256"
        }
      ],
      "stateMutability": "nonpayable",
      "type": "constructor"
    },
    {
      "anonymous": false,
      "inputs": [
        {
          "indexed": true,
          "internalType": "address",
          "name": "owner",
          "type": "address"
        },
        {
          "indexed": true,
          "internalType": "address",
          "name": "spender",
          "type": "address"
        },
        {
          "indexed": false,
          "internalType": "uint256",
          "name": "value",
          "type": "uint256"
        }
      ],
      "name": "Approval",
      "type": "event"
    },
    {
      "anonymous": false,
      "inputs": [
        {
          "indexed": true,
          "internalType": "address",
          "name": "seller",
          "type": "address"
        },
        {
          "indexed": false,
          "internalType": "uint256",
          "name": "tokenAmount",
          "type": "uint256"
        },
        {
          "indexed": false,
          "internalType": "uint256",
          "name": "price",
          "type": "uint256"
        }
      ],
      "name": "TokensListed",
      "type": "event"
    },
    {
      "anonymous": false,
      "inputs": [
        {
          "indexed": true,
          "internalType": "address",
          "name": "buyer",
          "type": "address"
        },
        {
          "indexed": true,
          "internalType": "address",
          "name": "seller",
          "type": "address"
        },
        {
          "indexed": false,
          "internalType": "uint256",
          "name": "tokenAmount",
          "type": "uint256"
        },
        {
          "indexed": false,
          "internalType": "uint256",
          "name": "price",
          "type": "uint256"
        }
      ],
      "name": "TokensPurchasedFromMarketplace",
      "type": "event"
    },
    {
      "anonymous": false,
      "inputs": [
        {
          "indexed": true,
          "internalType": "address",
          "name": "from",
          "type": "address"
        },
        {
          "indexed": true,
          "internalType": "address",
          "name": "to",
          "type": "address"
        },
        {
          "indexed": false,
          "internalType": "uint256",
          "name": "value",
          "type": "uint256"
        }
      ],
      "name": "Transfer",
      "type": "event"
    },
    {
      "anonymous": false,
      "inputs": [
        {
          "indexed": true,
          "internalType": "address",
          "name": "_industryId",
          "type": "address"
        },
        {
          "indexed": true,
          "internalType": "address",
          "name": "_govId",
          "type": "address"
        },
        {
          "indexed": true,
          "internalType": "uint256",
          "name": "_tokenCount",
          "type": "uint256"
        },
        {
          "indexed": false,
          "internalType": "uint256",
          "name": "_taxFee",
          "type": "uint256"
        }
      ],
      "name": "tokenPurchased",
      "type": "event"
    },
    {
      "inputs": [
        {
          "internalType": "address",
          "name": "",
          "type": "address"
        }
      ],
      "name": "GovernmentAccounts",
      "outputs": [
        {
          "internalType": "bool",
          "name": "",
          "type": "bool"
        }
      ],
      "stateMutability": "view",
      "type": "function"
    },
    {
      "inputs": [],
      "name": "GreenChainPlatformOwner",
      "outputs": [
        {
          "internalType": "address payable",
          "name": "",
          "type": "address"
        }
      ],
      "stateMutability": "view",
      "type": "function"
    },
    {
      "inputs": [
        {
          "internalType": "address",
          "name": "",
          "type": "address"
        }
      ],
      "name": "IndividualAccounts",
      "outputs": [
        {
          "internalType": "bool",
          "name": "",
          "type": "bool"
        }
      ],
      "stateMutability": "view",
      "type": "function"
    },
    {
      "inputs": [
        {
          "internalType": "address",
          "name": "",
          "type": "address"
        }
      ],
      "name": "IndustryAccounts",
      "outputs": [
        {
          "internalType": "bool",
          "name": "",
          "type": "bool"
        }
      ],
      "stateMutability": "view",
      "type": "function"
    },
    {
      "inputs": [
        {
          "internalType": "address",
          "name": "",
          "type": "address"
        }
      ],
      "name": "IndustryAllowance",
      "outputs": [
        {
          "internalType": "uint256",
          "name": "",
          "type": "uint256"
        }
      ],
      "stateMutability": "view",
      "type": "function"
    },
    {
      "inputs": [
        {
          "internalType": "address",
          "name": "owner",
          "type": "address"
        },
        {
          "internalType": "address",
          "name": "spender",
          "type": "address"
        }
      ],
      "name": "allowance",
      "outputs": [
        {
          "internalType": "uint256",
          "name": "",
          "type": "uint256"
        }
      ],
      "stateMutability": "view",
      "type": "function"
    },
    {
      "inputs": [
        {
          "internalType": "address",
          "name": "spender",
          "type": "address"
        },
        {
          "internalType": "uint256",
          "name": "amount",
          "type": "uint256"
        }
      ],
      "name": "approve",
      "outputs": [
        {
          "internalType": "bool",
          "name": "",
          "type": "bool"
        }
      ],
      "stateMutability": "nonpayable",
      "type": "function"
    },
    {
      "inputs": [
        {
          "internalType": "address",
          "name": "account",
          "type": "address"
        }
      ],
      "name": "balanceOf",
      "outputs": [
        {
          "internalType": "uint256",
          "name": "",
          "type": "uint256"
        }
      ],
      "stateMutability": "view",
      "type": "function"
    },
    {
      "inputs": [],
      "name": "decimals",
      "outputs": [
        {
          "internalType": "uint8",
          "name": "",
          "type": "uint8"
        }
      ],
      "stateMutability": "view",
      "type": "function"
    },
    {
      "inputs": [
        {
          "internalType": "address",
          "name": "spender",
          "type": "address"
        },
        {
          "internalType": "uint256",
          "name": "subtractedValue",
          "type": "uint256"
        }
      ],
      "name": "decreaseAllowance",
      "outputs": [
        {
          "internalType": "bool",
          "name": "",
          "type": "bool"
        }
      ],
      "stateMutability": "nonpayable",
      "type": "function"
    },
    {
      "inputs": [
        {
          "internalType": "address",
          "name": "spender",
          "type": "address"
        },
        {
          "internalType": "uint256",
          "name": "addedValue",
          "type": "uint256"
        }
      ],
      "name": "increaseAllowance",
      "outputs": [
        {
          "internalType": "bool",
          "name": "",
          "type": "bool"
        }
      ],
      "stateMutability": "nonpayable",
      "type": "function"
    },
    {
      "inputs": [],
      "name": "listingCount",
      "outputs": [
        {
          "internalType": "uint256",
          "name": "",
          "type": "uint256"
        }
      ],
      "stateMutability": "view",
      "type": "function"
    },
    {
      "inputs": [
        {
          "internalType": "uint256",
          "name": "",
          "type": "uint256"
        }
      ],
      "name": "listings",
      "outputs": [
        {
          "internalType": "address",
          "name": "seller",
          "type": "address"
        },
        {
          "internalType": "uint256",
          "name": "tokenAmount",
          "type": "uint256"
        },
        {
          "internalType": "uint256",
          "name": "price",
          "type": "uint256"
        },
        {
          "internalType": "bool",
          "name": "isActive",
          "type": "bool"
        }
      ],
      "stateMutability": "view",
      "type": "function"
    },
    {
      "inputs": [],
      "name": "name",
      "outputs": [
        {
          "internalType": "string",
          "name": "",
          "type": "string"
        }
      ],
      "stateMutability": "view",
      "type": "function"
    },
    {
      "inputs": [],
      "name": "symbol",
      "outputs": [
        {
          "internalType": "string",
          "name": "",
          "type": "string"
        }
      ],
      "stateMutability": "view",
      "type": "function"
    },
    {
      "inputs": [],
      "name": "tokenPrice",
      "outputs": [
        {
          "internalType": "uint256",
          "name": "",
          "type": "uint256"
        }
      ],
      "stateMutability": "view",
      "type": "function"
    },
    {
      "inputs": [],
      "name": "totalSupply",
      "outputs": [
        {
          "internalType": "uint256",
          "name": "",
          "type": "uint256"
        }
      ],
      "stateMutability": "view",
      "type": "function"
    },
    {
      "inputs": [
        {
          "internalType": "address",
          "name": "to",
          "type": "address"
        },
        {
          "internalType": "uint256",
          "name": "amount",
          "type": "uint256"
        }
      ],
      "name": "transfer",
      "outputs": [
        {
          "internalType": "bool",
          "name": "",
          "type": "bool"
        }
      ],
      "stateMutability": "nonpayable",
      "type": "function"
    },
    {
      "inputs": [
        {
          "internalType": "address",
          "name": "from",
          "type": "address"
        },
        {
          "internalType": "address",
          "name": "to",
          "type": "address"
        },
        {
          "internalType": "uint256",
          "name": "amount",
          "type": "uint256"
        }
      ],
      "name": "transferFrom",
      "outputs": [
        {
          "internalType": "bool",
          "name": "",
          "type": "bool"
        }
      ],
      "stateMutability": "nonpayable",
      "type": "function"
    },
    {
      "inputs": [
        {
          "internalType": "address",
          "name": "_address",
          "type": "address"
        },
        {
          "internalType": "uint256",
          "name": "_tokenCount",
          "type": "uint256"
        }
      ],
      "name": "burnToken",
      "outputs": [],
      "stateMutability": "nonpayable",
      "type": "function"
    },
    {
      "inputs": [
        {
          "internalType": "address",
          "name": "_account",
          "type": "address"
        }
      ],
      "name": "grantGovernmentPrivilege",
      "outputs": [],
      "stateMutability": "nonpayable",
      "type": "function"
    },
    {
      "inputs": [
        {
          "internalType": "uint256",
          "name": "newPrice",
          "type": "uint256"
        }
      ],
      "name": "setTokenPrice",
      "outputs": [],
      "stateMutability": "nonpayable",
      "type": "function"
    },
    {
      "inputs": [
        {
          "internalType": "address",
          "name": "_industry",
          "type": "address"
        },
        {
          "internalType": "uint256",
          "name": "_maxAllowance",
          "type": "uint256"
        },
        {
          "internalType": "uint256",
          "name": "_tokenCount",
          "type": "uint256"
        }
      ],
      "name": "initialAllowance",
      "outputs": [],
      "stateMutability": "nonpayable",
      "type": "function"
    },
    {
      "inputs": [],
      "name": "registerIndividual",
      "outputs": [],
      "stateMutability": "nonpayable",
      "type": "function"
    },
    {
      "inputs": [
        {
          "internalType": "uint256",
          "name": "rewardAmount",
          "type": "uint256"
        }
      ],
      "name": "collectReward",
      "outputs": [],
      "stateMutability": "nonpayable",
      "type": "function"
    },
    {
      "inputs": [
        {
          "internalType": "address",
          "name": "_account",
          "type": "address"
        }
      ],
      "name": "grantIndustryPrivilege",
      "outputs": [],
      "stateMutability": "nonpayable",
      "type": "function"
    },
    {
      "inputs": [
        {
          "internalType": "address",
          "name": "_to",
          "type": "address"
        },
        {
          "internalType": "uint256",
          "name": "_tokenCount",
          "type": "uint256"
        },
        {
          "internalType": "address payable",
          "name": "_govAddress",
          "type": "address"
        }
      ],
      "name": "buyToken",
      "outputs": [],
      "stateMutability": "payable",
      "type": "function"
    },
    {
      "inputs": [
        {
          "internalType": "uint256",
          "name": "_tokenCount",
          "type": "uint256"
        },
        {
          "internalType": "uint256",
          "name": "_price",
          "type": "uint256"
        }
      ],
      "name": "listTokensForSale",
      "outputs": [],
      "stateMutability": "nonpayable",
      "type": "function"
    },
    {
      "inputs": [
        {
          "internalType": "uint256",
          "name": "_listingId",
          "type": "uint256"
        }
      ],
      "name": "buyTokensFromMarketpalce",
      "outputs": [],
      "stateMutability": "payable",
      "type": "function"
    }
  ],
  "bytecode": "0x60806040523480156200001157600080fd5b5060405162003e1e38038062003e1e8339818101604052810190620000379190620003cd565b6040518060400160405280600b81526020017f477265656e4372656469740000000000000000000000000000000000000000008152506040518060400160405280600381526020017f47435400000000000000000000000000000000000000000000000000000000008152508160039080519060200190620000bb92919062000306565b508060049080519060200190620000d492919062000306565b50505033600560006101000a81548173ffffffffffffffffffffffffffffffffffffffff021916908373ffffffffffffffffffffffffffffffffffffffff160217905550806006819055506200017e600560009054906101000a900473ffffffffffffffffffffffffffffffffffffffff16620001566200018560201b60201c565b600a62000164919062000554565b606462000172919062000691565b6200018e60201b60201c565b50620007c4565b60006012905090565b600073ffffffffffffffffffffffffffffffffffffffff168273ffffffffffffffffffffffffffffffffffffffff16141562000201576040517f08c379a0000000000000000000000000000000000000000000000000000000008152600401620001f8906200044c565b60405180910390fd5b6200021560008383620002fc60201b60201c565b80600260008282546200022991906200049c565b92505081905550806000808473ffffffffffffffffffffffffffffffffffffffff1673ffffffffffffffffffffffffffffffffffffffff168152602001908152602001600020600082825401925050819055508173ffffffffffffffffffffffffffffffffffffffff16600073ffffffffffffffffffffffffffffffffffffffff167fddf252ad1be2c89b69c2b068fc378daa952ba7f163c4a11628f55a4df523b3ef83604051620002dc91906200046e565b60405180910390a3620002f8600083836200030160201b60201c565b5050565b505050565b505050565b828054620003149062000709565b90600052602060002090601f01602090048101928262000338576000855562000384565b82601f106200035357805160ff191683800117855562000384565b8280016001018555821562000384579182015b828111156200038357825182559160200191906001019062000366565b5b50905062000393919062000397565b5090565b5b80821115620003b257600081600090555060010162000398565b5090565b600081519050620003c781620007aa565b92915050565b600060208284031215620003e057600080fd5b6000620003f084828501620003b6565b91505092915050565b600062000408601f836200048b565b91507f45524332303a206d696e7420746f20746865207a65726f2061646472657373006000830152602082019050919050565b6200044681620006f2565b82525050565b600060208201905081810360008301526200046781620003f9565b9050919050565b60006020820190506200048560008301846200043b565b92915050565b600082825260208201905092915050565b6000620004a982620006f2565b9150620004b683620006f2565b9250827fffffffffffffffffffffffffffffffffffffffffffffffffffffffffffffffff03821115620004ee57620004ed6200073f565b5b828201905092915050565b6000808291508390505b60018511156200054b578086048111156200052357620005226200073f565b5b6001851615620005335780820291505b808102905062000543856200079d565b945062000503565b94509492505050565b60006200056182620006f2565b91506200056e83620006fc565b92506200059d7fffffffffffffffffffffffffffffffffffffffffffffffffffffffffffffffff8484620005a5565b905092915050565b600082620005b757600190506200068a565b81620005c757600090506200068a565b8160018114620005e05760028114620005eb5762000621565b60019150506200068a565b60ff8411156200060057620005ff6200073f565b5b8360020a9150848211156200061a57620006196200073f565b5b506200068a565b5060208310610133831016604e8410600b84101617156200065b5782820a9050838111156200065557620006546200073f565b5b6200068a565b6200066a8484846001620004f9565b925090508184048111156200068457620006836200073f565b5b81810290505b9392505050565b60006200069e82620006f2565b9150620006ab83620006f2565b9250817fffffffffffffffffffffffffffffffffffffffffffffffffffffffffffffffff0483118215151615620006e757620006e66200073f565b5b828202905092915050565b6000819050919050565b600060ff82169050919050565b600060028204905060018216806200072257607f821691505b602082108114156200073957620007386200076e565b5b50919050565b7f4e487b7100000000000000000000000000000000000000000000000000000000600052601160045260246000fd5b7f4e487b7100000000000000000000000000000000000000000000000000000000600052602260045260246000fd5b60008160011c9050919050565b620007b581620006f2565b8114620007c157600080fd5b50565b61364a80620007d46000396000f3fe6080604052600436106101c25760003560e01c80637ff9b596116100f7578063bd3507da11610095578063dd62ed3e11610064578063dd62ed3e1461065e578063de74e57b1461069b578063f13e8331146106db578063fbd9be8b14610718576101c2565b8063bd3507da146105a6578063cb8c0c1d146105cf578063d1df306c1461060c578063d22b2ed014610635576101c2565b8063a457c2d7116100d1578063a457c2d7146104ea578063a9059cbb14610527578063a9b07c2614610564578063b6267ae81461058f576101c2565b80637ff9b5961461047857806395d89b41146104a35780639a83dc3d146104ce576101c2565b806339509351116101645780635fe019301161013e5780635fe01930146103cd578063692bf4a8146103f65780636a61e5fc1461041257806370a082311461043b576101c2565b8063395093511461032a5780634fac01681461036757806351e73a16146103a4576101c2565b806318160ddd116101a057806318160ddd1461026c57806323b872dd146102975780632ea665cd146102d4578063313ce567146102ff576101c2565b806306fdde03146101c7578063095ea7b3146101f25780630a8c8f201461022f575b600080fd5b3480156101d357600080fd5b506101dc610741565b6040516101e99190612e0c565b60405180910390f35b3480156101fe57600080fd5b50610219600480360381019061021491906122ee565b6107d3565b6040516102269190612df1565b60405180910390f35b34801561023b57600080fd5b506102566004803603810190610251919061223a565b6107f6565b6040516102639190612df1565b60405180910390f35b34801561027857600080fd5b50610281610816565b60405161028e919061316e565b60405180910390f35b3480156102a357600080fd5b506102be60048036038101906102b9919061229f565b610820565b6040516102cb9190612df1565b60405180910390f35b3480156102e057600080fd5b506102e961084f565b6040516102f69190612d91565b60405180910390f35b34801561030b57600080fd5b50610314610875565b60405161032191906131b2565b60405180910390f35b34801561033657600080fd5b50610351600480360381019061034c91906122ee565b61087e565b60405161035e9190612df1565b60405180910390f35b34801561037357600080fd5b5061038e6004803603810190610389919061223a565b6108b5565b60405161039b9190612df1565b60405180910390f35b3480156103b057600080fd5b506103cb60048036038101906103c69190612379565b6108d5565b005b3480156103d957600080fd5b506103f460048036038101906103ef919061223a565b610b20565b005b610410600480360381019061040b919061232a565b610b7b565b005b34801561041e57600080fd5b50610439600480360381019061043491906123c8565b610e8a565b005b34801561044757600080fd5b50610462600480360381019061045d919061223a565b610f27565b60405161046f919061316e565b60405180910390f35b34801561048457600080fd5b5061048d610f6f565b60405161049a919061316e565b60405180910390f35b3480156104af57600080fd5b506104b8610f75565b6040516104c59190612e0c565b60405180910390f35b6104e860048036038101906104e391906123c8565b611007565b005b3480156104f657600080fd5b50610511600480360381019061050c91906122ee565b6112b8565b60405161051e9190612df1565b60405180910390f35b34801561053357600080fd5b5061054e600480360381019061054991906122ee565b61132f565b60405161055b9190612df1565b60405180910390f35b34801561057057600080fd5b50610579611352565b604051610586919061316e565b60405180910390f35b34801561059b57600080fd5b506105a4611358565b005b3480156105b257600080fd5b506105cd60048036038101906105c891906123c8565b61143f565b005b3480156105db57600080fd5b506105f660048036038101906105f1919061223a565b611539565b604051610603919061316e565b60405180910390f35b34801561061857600080fd5b50610633600480360381019061062e91906122ee565b611551565b005b34801561064157600080fd5b5061065c6004803603810190610657919061223a565b6115e6565b005b34801561066a57600080fd5b5061068560048036038101906106809190612263565b61166b565b604051610692919061316e565b60405180910390f35b3480156106a757600080fd5b506106c260048036038101906106bd91906123c8565b6116f2565b6040516106d29493929190612dac565b60405180910390f35b3480156106e757600080fd5b5061070260048036038101906106fd919061223a565b61174f565b60405161070f9190612df1565b60405180910390f35b34801561072457600080fd5b5061073f600480360381019061073a91906123f1565b61176f565b005b606060038054610750906134d8565b80601f016020809104026020016040519081016040528092919081815260200182805461077c906134d8565b80156107c95780601f1061079e576101008083540402835291602001916107c9565b820191906000526020600020905b8154815290600101906020018083116107ac57829003601f168201915b5050505050905090565b6000806107de6119f5565b90506107eb8185856119fd565b600191505092915050565b60086020528060005260406000206000915054906101000a900460ff1681565b6000600254905090565b60008061082b6119f5565b9050610838858285611bc8565b610843858585611c54565b60019150509392505050565b600560009054906101000a900473ffffffffffffffffffffffffffffffffffffffff1681565b60006012905090565b6000806108896119f5565b90506108aa81858561089b858961166b565b6108a591906131e9565b6119fd565b600191505092915050565b60096020528060005260406000206000915054906101000a900460ff1681565b60011515600760003373ffffffffffffffffffffffffffffffffffffffff1673ffffffffffffffffffffffffffffffffffffffff16815260200190815260200160002060009054906101000a900460ff16151514610968576040517f08c379a000000000000000000000000000000000000000000000000000000000815260040161095f906130ee565b60405180910390fd5b600073ffffffffffffffffffffffffffffffffffffffff168373ffffffffffffffffffffffffffffffffffffffff1614156109d8576040517f08c379a00000000000000000000000000000000000000000000000000000000081526004016109cf906130ce565b60405180910390fd5b60011515600860008573ffffffffffffffffffffffffffffffffffffffff1673ffffffffffffffffffffffffffffffffffffffff16815260200190815260200160002060009054906101000a900460ff16151514610a6b576040517f08c379a0000000000000000000000000000000000000000000000000000000008152600401610a629061302e565b60405180910390fd5b60008111610aae576040517f08c379a0000000000000000000000000000000000000000000000000000000008152600401610aa590612eee565b60405180910390fd5b81600a60008573ffffffffffffffffffffffffffffffffffffffff1673ffffffffffffffffffffffffffffffffffffffff16815260200190815260200160002081905550610b1b3384610aff610875565b600a610b0b9190613292565b84610b1691906133b0565b611c54565b505050565b6001600860008373ffffffffffffffffffffffffffffffffffffffff1673ffffffffffffffffffffffffffffffffffffffff16815260200190815260200160002060006101000a81548160ff02191690831515021790555050565b60011515600860003373ffffffffffffffffffffffffffffffffffffffff1673ffffffffffffffffffffffffffffffffffffffff16815260200190815260200160002060009054906101000a900460ff16151514610c0e576040517f08c379a0000000000000000000000000000000000000000000000000000000008152600401610c0590612f8e565b60405180910390fd5b60008211610c51576040517f08c379a0000000000000000000000000000000000000000000000000000000008152600401610c489061300e565b60405180910390fd5b3482600654610c6091906133b0565b14610ca0576040517f08c379a0000000000000000000000000000000000000000000000000000000008152600401610c979061310e565b60405180910390fd5b81600a60008573ffffffffffffffffffffffffffffffffffffffff1673ffffffffffffffffffffffffffffffffffffffff168152602001908152602001600020541015610d22576040517f08c379a0000000000000000000000000000000000000000000000000000000008152600401610d1990612e4e565b60405180910390fd5b610d4a83610d2e610875565b600a610d3a9190613292565b84610d4591906133b0565b611ecc565b8073ffffffffffffffffffffffffffffffffffffffff166108fc349081150290604051600060405180830381858888f19350505050158015610d90573d6000803e3d6000fd5b5081600a60008573ffffffffffffffffffffffffffffffffffffffff1673ffffffffffffffffffffffffffffffffffffffff16815260200190815260200160002054610ddc919061340a565b600a60008573ffffffffffffffffffffffffffffffffffffffff1673ffffffffffffffffffffffffffffffffffffffff16815260200190815260200160002081905550818173ffffffffffffffffffffffffffffffffffffffff168473ffffffffffffffffffffffffffffffffffffffff167f5fc4872a04fc9ef9e80a6593db4a82874ea60fbc1f93bd4d0b7a00d4aa8ae55634604051610e7d919061316e565b60405180910390a4505050565b60011515600760003373ffffffffffffffffffffffffffffffffffffffff1673ffffffffffffffffffffffffffffffffffffffff16815260200190815260200160002060009054906101000a900460ff16151514610f1d576040517f08c379a0000000000000000000000000000000000000000000000000000000008152600401610f14906130ee565b60405180910390fd5b8060068190555050565b60008060008373ffffffffffffffffffffffffffffffffffffffff1673ffffffffffffffffffffffffffffffffffffffff168152602001908152602001600020549050919050565b60065481565b606060048054610f84906134d8565b80601f0160208091040260200160405190810160405280929190818152602001828054610fb0906134d8565b8015610ffd5780601f10610fd257610100808354040283529160200191610ffd565b820191906000526020600020905b815481529060010190602001808311610fe057829003601f168201915b5050505050905090565b60011515600860003373ffffffffffffffffffffffffffffffffffffffff1673ffffffffffffffffffffffffffffffffffffffff16815260200190815260200160002060009054906101000a900460ff1615151461109a576040517f08c379a000000000000000000000000000000000000000000000000000000000815260040161109190612f8e565b60405180910390fd5b6000600b600083815260200190815260200160002090508060030160009054906101000a900460ff16611102576040517f08c379a00000000000000000000000000000000000000000000000000000000081526004016110f990612fee565b60405180910390fd5b80600201543414611148576040517f08c379a000000000000000000000000000000000000000000000000000000000815260040161113f90612f6e565b60405180910390fd5b6111998160000160009054906101000a900473ffffffffffffffffffffffffffffffffffffffff1633611179610875565b600a6111859190613292565b846001015461119491906133b0565b611c54565b8060000160009054906101000a900473ffffffffffffffffffffffffffffffffffffffff1673ffffffffffffffffffffffffffffffffffffffff166108fc349081150290604051600060405180830381858888f19350505050158015611203573d6000803e3d6000fd5b5060008160030160006101000a81548160ff0219169083151502179055508060000160009054906101000a900473ffffffffffffffffffffffffffffffffffffffff1673ffffffffffffffffffffffffffffffffffffffff163373ffffffffffffffffffffffffffffffffffffffff167f85f10505be3ed7bf7f1e02cf6bf521e67cd27c4b1e91954cc55d67c262fa64ff836001015484600201546040516112ac929190613189565b60405180910390a35050565b6000806112c36119f5565b905060006112d1828661166b565b905083811015611316576040517f08c379a000000000000000000000000000000000000000000000000000000000815260040161130d9061312e565b60405180910390fd5b61132382868684036119fd565b60019250505092915050565b60008061133a6119f5565b9050611347818585611c54565b600191505092915050565b600c5481565b600960003373ffffffffffffffffffffffffffffffffffffffff1673ffffffffffffffffffffffffffffffffffffffff16815260200190815260200160002060009054906101000a900460ff16156113e5576040517f08c379a00000000000000000000000000000000000000000000000000000000081526004016113dc90612f4e565b60405180910390fd5b6001600960003373ffffffffffffffffffffffffffffffffffffffff1673ffffffffffffffffffffffffffffffffffffffff16815260200190815260200160002060006101000a81548160ff021916908315150217905550565b600960003373ffffffffffffffffffffffffffffffffffffffff1673ffffffffffffffffffffffffffffffffffffffff16815260200190815260200160002060009054906101000a900460ff166114cb576040517f08c379a00000000000000000000000000000000000000000000000000000000081526004016114c290612fae565b60405180910390fd5b6000811161150e576040517f08c379a000000000000000000000000000000000000000000000000000000000815260040161150590612e8e565b60405180910390fd5b6115363361151a610875565b600a6115269190613292565b8361153191906133b0565b611ecc565b50565b600a6020528060005260406000206000915090505481565b611559610875565b600a6115659190613292565b8161157091906133b0565b61157983610f27565b10156115ba576040517f08c379a00000000000000000000000000000000000000000000000000000000081526004016115b1906130ae565b60405180910390fd5b6115e2826115c6610875565b600a6115d29190613292565b836115dd91906133b0565b612023565b5050565b6001600760008373ffffffffffffffffffffffffffffffffffffffff1673ffffffffffffffffffffffffffffffffffffffff16815260200190815260200160002060006101000a81548160ff0219169083151502179055506116683361164a610875565b600a6116569190613292565b6103e861166391906133b0565b611ecc565b50565b6000600160008473ffffffffffffffffffffffffffffffffffffffff1673ffffffffffffffffffffffffffffffffffffffff16815260200190815260200160002060008373ffffffffffffffffffffffffffffffffffffffff1673ffffffffffffffffffffffffffffffffffffffff16815260200190815260200160002054905092915050565b600b6020528060005260406000206000915090508060000160009054906101000a900473ffffffffffffffffffffffffffffffffffffffff16908060010154908060020154908060030160009054906101000a900460ff16905084565b60076020528060005260406000206000915054906101000a900460ff1681565b60011515600860003373ffffffffffffffffffffffffffffffffffffffff1673ffffffffffffffffffffffffffffffffffffffff16815260200190815260200160002060009054906101000a900460ff16151514611802576040517f08c379a00000000000000000000000000000000000000000000000000000000081526004016117f990612f8e565b60405180910390fd5b8161180b610875565b600a6118179190613292565b8161182291906133b0565b61182b33610f27565b101561186c576040517f08c379a000000000000000000000000000000000000000000000000000000000815260040161186390612f2e565b60405180910390fd5b60008311801561187c5750600082115b6118bb576040517f08c379a00000000000000000000000000000000000000000000000000000000081526004016118b290612fce565b60405180910390fd5b60405180608001604052803373ffffffffffffffffffffffffffffffffffffffff16815260200184815260200183815260200160011515815250600b6000600c54815260200190815260200160002060008201518160000160006101000a81548173ffffffffffffffffffffffffffffffffffffffff021916908373ffffffffffffffffffffffffffffffffffffffff160217905550602082015181600101556040820151816002015560608201518160030160006101000a81548160ff0219169083151502179055509050503373ffffffffffffffffffffffffffffffffffffffff167fcf412bfe866866664047e9f9e38cc21c13173a37c85de5d29b65f1822231ec0084846040516119d0929190613189565b60405180910390a2600c60008154809291906119eb9061350a565b9190505550505050565b600033905090565b600073ffffffffffffffffffffffffffffffffffffffff168373ffffffffffffffffffffffffffffffffffffffff161415611a6d576040517f08c379a0000000000000000000000000000000000000000000000000000000008152600401611a649061308e565b60405180910390fd5b600073ffffffffffffffffffffffffffffffffffffffff168273ffffffffffffffffffffffffffffffffffffffff161415611add576040517f08c379a0000000000000000000000000000000000000000000000000000000008152600401611ad490612eae565b60405180910390fd5b80600160008573ffffffffffffffffffffffffffffffffffffffff1673ffffffffffffffffffffffffffffffffffffffff16815260200190815260200160002060008473ffffffffffffffffffffffffffffffffffffffff1673ffffffffffffffffffffffffffffffffffffffff168152602001908152602001600020819055508173ffffffffffffffffffffffffffffffffffffffff168373ffffffffffffffffffffffffffffffffffffffff167f8c5be1e5ebec7d5bd14f71427d1e84f3dd0314c0f7b2291e5b200ac8c7c3b92583604051611bbb919061316e565b60405180910390a3505050565b6000611bd4848461166b565b90507fffffffffffffffffffffffffffffffffffffffffffffffffffffffffffffffff8114611c4e5781811015611c40576040517f08c379a0000000000000000000000000000000000000000000000000000000008152600401611c3790612ece565b60405180910390fd5b611c4d84848484036119fd565b5b50505050565b600073ffffffffffffffffffffffffffffffffffffffff168373ffffffffffffffffffffffffffffffffffffffff161415611cc4576040517f08c379a0000000000000000000000000000000000000000000000000000000008152600401611cbb9061306e565b60405180910390fd5b600073ffffffffffffffffffffffffffffffffffffffff168273ffffffffffffffffffffffffffffffffffffffff161415611d34576040517f08c379a0000000000000000000000000000000000000000000000000000000008152600401611d2b90612e2e565b60405180910390fd5b611d3f8383836121f1565b60008060008573ffffffffffffffffffffffffffffffffffffffff1673ffffffffffffffffffffffffffffffffffffffff16815260200190815260200160002054905081811015611dc5576040517f08c379a0000000000000000000000000000000000000000000000000000000008152600401611dbc90612f0e565b60405180910390fd5b8181036000808673ffffffffffffffffffffffffffffffffffffffff1673ffffffffffffffffffffffffffffffffffffffff16815260200190815260200160002081905550816000808573ffffffffffffffffffffffffffffffffffffffff1673ffffffffffffffffffffffffffffffffffffffff168152602001908152602001600020600082825401925050819055508273ffffffffffffffffffffffffffffffffffffffff168473ffffffffffffffffffffffffffffffffffffffff167fddf252ad1be2c89b69c2b068fc378daa952ba7f163c4a11628f55a4df523b3ef84604051611eb3919061316e565b60405180910390a3611ec68484846121f6565b50505050565b600073ffffffffffffffffffffffffffffffffffffffff168273ffffffffffffffffffffffffffffffffffffffff161415611f3c576040517f08c379a0000000000000000000000000000000000000000000000000000000008152600401611f339061314e565b60405180910390fd5b611f48600083836121f1565b8060026000828254611f5a91906131e9565b92505081905550806000808473ffffffffffffffffffffffffffffffffffffffff1673ffffffffffffffffffffffffffffffffffffffff168152602001908152602001600020600082825401925050819055508173ffffffffffffffffffffffffffffffffffffffff16600073ffffffffffffffffffffffffffffffffffffffff167fddf252ad1be2c89b69c2b068fc378daa952ba7f163c4a11628f55a4df523b3ef8360405161200b919061316e565b60405180910390a361201f600083836121f6565b5050565b600073ffffffffffffffffffffffffffffffffffffffff168273ffffffffffffffffffffffffffffffffffffffff161415612093576040517f08c379a000000000000000000000000000000000000000000000000000000000815260040161208a9061304e565b60405180910390fd5b61209f826000836121f1565b60008060008473ffffffffffffffffffffffffffffffffffffffff1673ffffffffffffffffffffffffffffffffffffffff16815260200190815260200160002054905081811015612125576040517f08c379a000000000000000000000000000000000000000000000000000000000815260040161211c90612e6e565b60405180910390fd5b8181036000808573ffffffffffffffffffffffffffffffffffffffff1673ffffffffffffffffffffffffffffffffffffffff1681526020019081526020016000208190555081600260008282540392505081905550600073ffffffffffffffffffffffffffffffffffffffff168373ffffffffffffffffffffffffffffffffffffffff167fddf252ad1be2c89b69c2b068fc378daa952ba7f163c4a11628f55a4df523b3ef846040516121d8919061316e565b60405180910390a36121ec836000846121f6565b505050565b505050565b505050565b60008135905061220a816135cf565b92915050565b60008135905061221f816135e6565b92915050565b600081359050612234816135fd565b92915050565b60006020828403121561224c57600080fd5b600061225a848285016121fb565b91505092915050565b6000806040838503121561227657600080fd5b6000612284858286016121fb565b9250506020612295858286016121fb565b9150509250929050565b6000806000606084860312156122b457600080fd5b60006122c2868287016121fb565b93505060206122d3868287016121fb565b92505060406122e486828701612225565b9150509250925092565b6000806040838503121561230157600080fd5b600061230f858286016121fb565b925050602061232085828601612225565b9150509250929050565b60008060006060848603121561233f57600080fd5b600061234d868287016121fb565b935050602061235e86828701612225565b925050604061236f86828701612210565b9150509250925092565b60008060006060848603121561238e57600080fd5b600061239c868287016121fb565b93505060206123ad86828701612225565b92505060406123be86828701612225565b9150509250925092565b6000602082840312156123da57600080fd5b60006123e884828501612225565b91505092915050565b6000806040838503121561240457600080fd5b600061241285828601612225565b925050602061242385828601612225565b9150509250929050565b61243681613450565b82525050565b6124458161343e565b82525050565b61245481613462565b82525050565b6000612465826131cd565b61246f81856131d8565b935061247f8185602086016134a5565b612488816135b1565b840191505092915050565b60006124a06023836131d8565b91507f45524332303a207472616e7366657220746f20746865207a65726f206164647260008301527f65737300000000000000000000000000000000000000000000000000000000006020830152604082019050919050565b60006125066012836131d8565b91507f416c6c6f77616e636520657863656564656400000000000000000000000000006000830152602082019050919050565b60006125466022836131d8565b91507f45524332303a206275726e20616d6f756e7420657863656564732062616c616e60008301527f63650000000000000000000000000000000000000000000000000000000000006020830152604082019050919050565b60006125ac6024836131d8565b91507f52657761726420616d6f756e74206d757374206265206772656174657220746860008301527f616e2030000000000000000000000000000000000000000000000000000000006020830152604082019050919050565b60006126126022836131d8565b91507f45524332303a20617070726f766520746f20746865207a65726f20616464726560008301527f73730000000000000000000000000000000000000000000000000000000000006020830152604082019050919050565b6000612678601d836131d8565b91507f45524332303a20696e73756666696369656e7420616c6c6f77616e63650000006000830152602082019050919050565b60006126b86022836131d8565b91507f746f6b656e20436f756e74206d7573742062652067726561746572207468616e60008301527f20300000000000000000000000000000000000000000000000000000000000006020830152604082019050919050565b600061271e6026836131d8565b91507f45524332303a207472616e7366657220616d6f756e742065786365656473206260008301527f616c616e636500000000000000000000000000000000000000000000000000006020830152604082019050919050565b60006127846014836131d8565b91507f496e73756666696369656e742062616c616e63650000000000000000000000006000830152602082019050919050565b60006127c46023836131d8565b91507f416c7265616479207265676973746572656420617320616e20696e646976696460008301527f75616c00000000000000000000000000000000000000000000000000000000006020830152604082019050919050565b600061282a6018836131d8565b91507f496e636f7272656374207061796d656e7420616d6f756e7400000000000000006000830152602082019050919050565b600061286a602d836131d8565b91507f6f6e6c7920696e64757374727920617574686f726974792063616e207573652060008301527f746869732066756e6374696f6e000000000000000000000000000000000000006020830152604082019050919050565b60006128d06037836131d8565b91507f4f6e6c79207265676973746572656420696e646976696475616c20757365727360008301527f2063616e2063616c6c20746869732066756e6374696f6e0000000000000000006020830152604082019050919050565b60006129366017836131d8565b91507f496e76616c696420616d6f756e74206f722070726963650000000000000000006000830152602082019050919050565b60006129766015836131d8565b91507f4c697374696e67206973206e6f742061637469766500000000000000000000006000830152602082019050919050565b60006129b66022836131d8565b91507f546f6b656e20636f756e74206d7573742062652067726561746572207468616e60008301527f20300000000000000000000000000000000000000000000000000000000000006020830152604082019050919050565b6000612a1c6021836131d8565b91507f676976656e2061646472657373206d75737420626520616e20696e647573747260008301527f79000000000000000000000000000000000000000000000000000000000000006020830152604082019050919050565b6000612a826021836131d8565b91507f45524332303a206275726e2066726f6d20746865207a65726f2061646472657360008301527f73000000000000000000000000000000000000000000000000000000000000006020830152604082019050919050565b6000612ae86025836131d8565b91507f45524332303a207472616e736665722066726f6d20746865207a65726f20616460008301527f64726573730000000000000000000000000000000000000000000000000000006020830152604082019050919050565b6000612b4e6024836131d8565b91507f45524332303a20617070726f76652066726f6d20746865207a65726f2061646460008301527f72657373000000000000000000000000000000000000000000000000000000006020830152604082019050919050565b6000612bb46019836131d8565b91507f746f6b656e20636f756e74206973206e6f7420656e6f756768000000000000006000830152602082019050919050565b6000612bf46011836131d8565b91507f496e76616c6964206164647265737365730000000000000000000000000000006000830152602082019050919050565b6000612c34602f836131d8565b91507f6f6e6c7920676f7665726e6d656e7420617574686f726974792063616e20757360008301527f6520746869732066756e6374696f6e00000000000000000000000000000000006020830152604082019050919050565b6000612c9a6010836131d8565b91507f496e636f727265637420616d6f756e74000000000000000000000000000000006000830152602082019050919050565b6000612cda6025836131d8565b91507f45524332303a2064656372656173656420616c6c6f77616e63652062656c6f7760008301527f207a65726f0000000000000000000000000000000000000000000000000000006020830152604082019050919050565b6000612d40601f836131d8565b91507f45524332303a206d696e7420746f20746865207a65726f2061646472657373006000830152602082019050919050565b612d7c8161348e565b82525050565b612d8b81613498565b82525050565b6000602082019050612da6600083018461242d565b92915050565b6000608082019050612dc1600083018761243c565b612dce6020830186612d73565b612ddb6040830185612d73565b612de8606083018461244b565b95945050505050565b6000602082019050612e06600083018461244b565b92915050565b60006020820190508181036000830152612e26818461245a565b905092915050565b60006020820190508181036000830152612e4781612493565b9050919050565b60006020820190508181036000830152612e67816124f9565b9050919050565b60006020820190508181036000830152612e8781612539565b9050919050565b60006020820190508181036000830152612ea78161259f565b9050919050565b60006020820190508181036000830152612ec781612605565b9050919050565b60006020820190508181036000830152612ee78161266b565b9050919050565b60006020820190508181036000830152612f07816126ab565b9050919050565b60006020820190508181036000830152612f2781612711565b9050919050565b60006020820190508181036000830152612f4781612777565b9050919050565b60006020820190508181036000830152612f67816127b7565b9050919050565b60006020820190508181036000830152612f878161281d565b9050919050565b60006020820190508181036000830152612fa78161285d565b9050919050565b60006020820190508181036000830152612fc7816128c3565b9050919050565b60006020820190508181036000830152612fe781612929565b9050919050565b6000602082019050818103600083015261300781612969565b9050919050565b60006020820190508181036000830152613027816129a9565b9050919050565b6000602082019050818103600083015261304781612a0f565b9050919050565b6000602082019050818103600083015261306781612a75565b9050919050565b6000602082019050818103600083015261308781612adb565b9050919050565b600060208201905081810360008301526130a781612b41565b9050919050565b600060208201905081810360008301526130c781612ba7565b9050919050565b600060208201905081810360008301526130e781612be7565b9050919050565b6000602082019050818103600083015261310781612c27565b9050919050565b6000602082019050818103600083015261312781612c8d565b9050919050565b6000602082019050818103600083015261314781612ccd565b9050919050565b6000602082019050818103600083015261316781612d33565b9050919050565b60006020820190506131836000830184612d73565b92915050565b600060408201905061319e6000830185612d73565b6131ab6020830184612d73565b9392505050565b60006020820190506131c76000830184612d82565b92915050565b600081519050919050565b600082825260208201905092915050565b60006131f48261348e565b91506131ff8361348e565b9250827fffffffffffffffffffffffffffffffffffffffffffffffffffffffffffffffff0382111561323457613233613553565b5b828201905092915050565b6000808291508390505b60018511156132895780860481111561326557613264613553565b5b60018516156132745780820291505b8081029050613282856135c2565b9450613249565b94509492505050565b600061329d8261348e565b91506132a883613498565b92506132d57fffffffffffffffffffffffffffffffffffffffffffffffffffffffffffffffff84846132dd565b905092915050565b6000826132ed57600190506133a9565b816132fb57600090506133a9565b8160018114613311576002811461331b5761334a565b60019150506133a9565b60ff84111561332d5761332c613553565b5b8360020a91508482111561334457613343613553565b5b506133a9565b5060208310610133831016604e8410600b841016171561337f5782820a90508381111561337a57613379613553565b5b6133a9565b61338c848484600161323f565b925090508184048111156133a3576133a2613553565b5b81810290505b9392505050565b60006133bb8261348e565b91506133c68361348e565b9250817fffffffffffffffffffffffffffffffffffffffffffffffffffffffffffffffff04831182151516156133ff576133fe613553565b5b828202905092915050565b60006134158261348e565b91506134208361348e565b92508282101561343357613432613553565b5b828203905092915050565b60006134498261346e565b9050919050565b600061345b8261346e565b9050919050565b60008115159050919050565b600073ffffffffffffffffffffffffffffffffffffffff82169050919050565b6000819050919050565b600060ff82169050919050565b60005b838110156134c35780820151818401526020810190506134a8565b838111156134d2576000848401525b50505050565b600060028204905060018216806134f057607f821691505b6020821081141561350457613503613582565b5b50919050565b60006135158261348e565b91507fffffffffffffffffffffffffffffffffffffffffffffffffffffffffffffffff82141561354857613547613553565b5b600182019050919050565b7f4e487b7100000000000000000000000000000000000000000000000000000000600052601160045260246000fd5b7f4e487b7100000000000000000000000000000000000000000000000000000000600052602260045260246000fd5b6000601f19601f8301169050919050565b60008160011c9050919050565b6135d88161343e565b81146135e357600080fd5b50565b6135ef81613450565b81146135fa57600080fd5b50565b6136068161348e565b811461361157600080fd5b5056fea264697066735822122006e2f2c3fb017497f9b8c26b73c6ea48fb35380252a1cc9c76cc760dd6a5240964736f6c63430008000033",
  "immutableReferences": {},
  "source": "// SPDX-License-Identifier: MIT\npragma solidity ^0.8.0;\n\nimport \"@openzeppelin/contracts/token/ERC20/ERC20.sol\";\n\ncontract GreenCreditToken is ERC20 {\n    address payable public GreenChainPlatformOwner;\n    uint public tokenPrice;\n\n    mapping(address => bool) public GovernmentAccounts;\n    mapping(address => bool) public IndustryAccounts; \n    mapping(address => bool) public IndividualAccounts;\n\n    mapping(address => uint) public IndustryAllowance;\n\n    constructor(uint initTokenPrice) ERC20(\"GreenCredit\", \"GCT\") {\n        GreenChainPlatformOwner = payable(msg.sender);\n        tokenPrice = initTokenPrice;\n        _mint(GreenChainPlatformOwner, 100 * 10**decimals());\n    }\n\n    modifier onlyPlatformOwner() {\n        require(\n            msg.sender != GreenChainPlatformOwner,\n            \"you are not a platform owner\"\n        );\n        _;\n    }\n\n    function burnToken(address _address, uint _tokenCount) public {\n        require(\n            balanceOf(_address) >= _tokenCount * 10**decimals(),\n            \"token count is not enough\"\n        );\n        _burn(_address, _tokenCount * 10**decimals());\n    }\n\n    //Gov functionalities\n    function grantGovernmentPrivilege(address _account) public {\n        GovernmentAccounts[_account] = true;\n        _mint(msg.sender, 1000 * 10**decimals());\n    }\n\n    modifier onlyGovernment() {\n        require(\n            GovernmentAccounts[msg.sender] == true,\n            \"only government authority can use this function\"\n        );\n        _;\n    }\n\n    function setTokenPrice(uint newPrice) public onlyGovernment {\n        tokenPrice = newPrice;\n    }\n\n    function initialAllowance(\n        address _industry,\n        uint _maxAllowance,\n        uint _tokenCount\n    ) public onlyGovernment {\n        require(_industry != address(0), \"Invalid addresses\");\n        require(\n            IndustryAccounts[_industry] == true,\n            \"given address must be an industry\"\n        );\n        require(_tokenCount > 0, \"token Count must be greater than 0\");\n        IndustryAllowance[_industry] = _maxAllowance;\n        _transfer(msg.sender, _industry, _tokenCount * 10**decimals());\n    }\n\n    // Reward distribution to the public\n    function registerIndividual() public {\n        require(!IndividualAccounts[msg.sender], \"Already registered as an individual\");\n        IndividualAccounts[msg.sender] = true;\n    }\n\n    modifier onlyIndividual() {\n        require(\n            IndividualAccounts[msg.sender],\n            \"Only registered individual users can call this function\"\n        );\n        _;\n    }\n\n    function collectReward(uint rewardAmount) public onlyIndividual {\n        require(rewardAmount > 0, \"Reward amount must be greater than 0\");\n\n        _mint(msg.sender, rewardAmount * 10**decimals());\n    }\n\n    //Industry functionalities\n    function grantIndustryPrivilege(address _account) public {\n        IndustryAccounts[_account] = true;\n    }\n\n    modifier onlyIndustry() {\n        require(\n            IndustryAccounts[msg.sender] == true,\n            \"only industry authority can use this function\"\n        );\n        _;\n    }\n\n    event tokenPurchased(\n        address indexed _industryId,\n        address indexed _govId,\n        uint indexed _tokenCount,\n        uint _taxFee\n    );\n\n    // buy a token from Government and pay the tax fee for emission\n    function buyToken(\n        address _to,\n        uint _tokenCount,\n        address payable _govAddress\n    ) public payable onlyIndustry {\n        require(_tokenCount > 0, \"Token count must be greater than 0\");\n        require(tokenPrice * _tokenCount == msg.value, \"Incorrect amount\");\n        require(IndustryAllowance[_to] >= _tokenCount, \"Allowance exceeded\");\n\n        _mint(_to, _tokenCount * 10**decimals());\n        _govAddress.transfer(msg.value); // Pay the total cost to the Government\n        IndustryAllowance[_to] = IndustryAllowance[_to] - _tokenCount;\n        emit tokenPurchased(_to, _govAddress, _tokenCount, msg.value);\n    }\n\n    // ==== Carbon credit trading system ====\n\n    struct TokenListing {\n        address seller;\n        uint tokenAmount;\n        uint price;\n        bool isActive;\n    }\n\n    mapping(uint => TokenListing) public listings;\n    uint public listingCount;\n\n    event TokensListed(\n        address indexed seller,\n        uint tokenAmount,\n        uint price\n    );\n    event TokensPurchasedFromMarketplace(\n        address indexed buyer,\n        address indexed seller,\n        uint tokenAmount,\n        uint price\n    );\n\n    modifier validBalance(uint _tokenCount) {\n        require(\n            balanceOf(msg.sender) >= _tokenCount * 10**decimals(),\n            \"Insufficient balance\"\n        );\n        _;\n    }\n\n    function listTokensForSale(uint _tokenCount, uint _price)\n        public\n        onlyIndustry\n        validBalance(_tokenCount)\n    {\n        require(_tokenCount > 0 && _price > 0, \"Invalid amount or price\");\n\n        listings[listingCount] = TokenListing({\n            seller: msg.sender,\n            tokenAmount: _tokenCount,\n            price: _price,\n            isActive: true\n        });\n\n        emit TokensListed(msg.sender, _tokenCount, _price);\n        listingCount++;\n    }\n\n    // buy the listed token\n    function buyTokensFromMarketpalce(uint _listingId) public payable onlyIndustry {\n        TokenListing storage listing = listings[_listingId];\n        require(listing.isActive, \"Listing is not active\");\n        require(msg.value == listing.price, \"Incorrect payment amount\");\n\n        _transfer(\n            listing.seller,\n            msg.sender,\n            listing.tokenAmount * 10**decimals()\n        );\n\n        payable(listing.seller).transfer(msg.value);\n\n        listing.isActive = false;\n\n        emit TokensPurchasedFromMarketplace(\n            msg.sender,\n            listing.seller,\n            listing.tokenAmount,\n            listing.price\n        );\n    }\n}\n",
  "sourcePath": "/home/tenshkumar-k/Documents/GitHub/Green-Chain-PLI-Hackathon-2.0/contracts/GreenCreditToken.sol",
  "compiler": {
    "name": "solc",
    "version": "0.8.0+commit.c7dfd78e.Emscripten.clang"
  },
  "schemaVersion": "3.4.16",
  "updatedAt": "2024-02-14T10:03:52.524Z",
  "devdoc": {
    "kind": "dev",
    "methods": {
      "allowance(address,address)": {
        "details": "See {IERC20-allowance}."
      },
      "approve(address,uint256)": {
        "details": "See {IERC20-approve}. NOTE: If `amount` is the maximum `uint256`, the allowance is not updated on `transferFrom`. This is semantically equivalent to an infinite approval. Requirements: - `spender` cannot be the zero address."
      },
      "balanceOf(address)": {
        "details": "See {IERC20-balanceOf}."
      },
      "decimals()": {
        "details": "Returns the number of decimals used to get its user representation. For example, if `decimals` equals `2`, a balance of `505` tokens should be displayed to a user as `5.05` (`505 / 10 ** 2`). Tokens usually opt for a value of 18, imitating the relationship between Ether and Wei. This is the default value returned by this function, unless it's overridden. NOTE: This information is only used for _display_ purposes: it in no way affects any of the arithmetic of the contract, including {IERC20-balanceOf} and {IERC20-transfer}."
      },
      "decreaseAllowance(address,uint256)": {
        "details": "Atomically decreases the allowance granted to `spender` by the caller. This is an alternative to {approve} that can be used as a mitigation for problems described in {IERC20-approve}. Emits an {Approval} event indicating the updated allowance. Requirements: - `spender` cannot be the zero address. - `spender` must have allowance for the caller of at least `subtractedValue`."
      },
      "increaseAllowance(address,uint256)": {
        "details": "Atomically increases the allowance granted to `spender` by the caller. This is an alternative to {approve} that can be used as a mitigation for problems described in {IERC20-approve}. Emits an {Approval} event indicating the updated allowance. Requirements: - `spender` cannot be the zero address."
      },
      "name()": {
        "details": "Returns the name of the token."
      },
      "symbol()": {
        "details": "Returns the symbol of the token, usually a shorter version of the name."
      },
      "totalSupply()": {
        "details": "See {IERC20-totalSupply}."
      },
      "transfer(address,uint256)": {
        "details": "See {IERC20-transfer}. Requirements: - `to` cannot be the zero address. - the caller must have a balance of at least `amount`."
      },
      "transferFrom(address,address,uint256)": {
        "details": "See {IERC20-transferFrom}. Emits an {Approval} event indicating the updated allowance. This is not required by the EIP. See the note at the beginning of {ERC20}. NOTE: Does not update the allowance if the current allowance is the maximum `uint256`. Requirements: - `from` and `to` cannot be the zero address. - `from` must have a balance of at least `amount`. - the caller must have allowance for ``from``'s tokens of at least `amount`."
      }
    },
    "version": 1
  },
  "userdoc": {
    "kind": "user",
    "methods": {},
    "version": 1
  }
}