{
  "contractName": "GreenCreditToken",
  "abi": [
    {
      "inputs": [
        {
          "internalType": "uint256",
          "name": "initTokenPrice",
          "type": "uint256"
        }
      ],
      "stateMutability": "nonpayable",
      "type": "constructor"
    },
    {
      "anonymous": false,
      "inputs": [
        {
          "indexed": true,
          "internalType": "address",
          "name": "owner",
          "type": "address"
        },
        {
          "indexed": true,
          "internalType": "address",
          "name": "spender",
          "type": "address"
        },
        {
          "indexed": false,
          "internalType": "uint256",
          "name": "value",
          "type": "uint256"
        }
      ],
      "name": "Approval",
      "type": "event"
    },
    {
      "anonymous": false,
      "inputs": [
        {
          "indexed": true,
          "internalType": "address",
          "name": "seller",
          "type": "address"
        },
        {
          "indexed": false,
          "internalType": "uint256",
          "name": "tokenAmount",
          "type": "uint256"
        },
        {
          "indexed": false,
          "internalType": "uint256",
          "name": "price",
          "type": "uint256"
        }
      ],
      "name": "TokensListed",
      "type": "event"
    },
    {
      "anonymous": false,
      "inputs": [
        {
          "indexed": true,
          "internalType": "address",
          "name": "buyer",
          "type": "address"
        },
        {
          "indexed": true,
          "internalType": "address",
          "name": "seller",
          "type": "address"
        },
        {
          "indexed": false,
          "internalType": "uint256",
          "name": "tokenAmount",
          "type": "uint256"
        },
        {
          "indexed": false,
          "internalType": "uint256",
          "name": "price",
          "type": "uint256"
        }
      ],
      "name": "TokensPurchasedFromMarketplace",
      "type": "event"
    },
    {
      "anonymous": false,
      "inputs": [
        {
          "indexed": true,
          "internalType": "address",
          "name": "from",
          "type": "address"
        },
        {
          "indexed": true,
          "internalType": "address",
          "name": "to",
          "type": "address"
        },
        {
          "indexed": false,
          "internalType": "uint256",
          "name": "value",
          "type": "uint256"
        }
      ],
      "name": "Transfer",
      "type": "event"
    },
    {
      "anonymous": false,
      "inputs": [
        {
          "indexed": true,
          "internalType": "address",
          "name": "_industryId",
          "type": "address"
        },
        {
          "indexed": true,
          "internalType": "address",
          "name": "_govId",
          "type": "address"
        },
        {
          "indexed": true,
          "internalType": "uint256",
          "name": "_tokenCount",
          "type": "uint256"
        },
        {
          "indexed": false,
          "internalType": "uint256",
          "name": "_taxFee",
          "type": "uint256"
        }
      ],
      "name": "tokenPurchased",
      "type": "event"
    },
    {
      "inputs": [
        {
          "internalType": "address",
          "name": "",
          "type": "address"
        }
      ],
      "name": "GovernmentAccounts",
      "outputs": [
        {
          "internalType": "bool",
          "name": "",
          "type": "bool"
        }
      ],
      "stateMutability": "view",
      "type": "function",
      "constant": true
    },
    {
      "inputs": [],
      "name": "GreenChainPlatformOwner",
      "outputs": [
        {
          "internalType": "address payable",
          "name": "",
          "type": "address"
        }
      ],
      "stateMutability": "view",
      "type": "function",
      "constant": true
    },
    {
      "inputs": [
        {
          "internalType": "address",
          "name": "",
          "type": "address"
        }
      ],
      "name": "IndustryAccounts",
      "outputs": [
        {
          "internalType": "bool",
          "name": "",
          "type": "bool"
        }
      ],
      "stateMutability": "view",
      "type": "function",
      "constant": true
    },
    {
      "inputs": [
        {
          "internalType": "address",
          "name": "",
          "type": "address"
        }
      ],
      "name": "IndustryAllowance",
      "outputs": [
        {
          "internalType": "uint256",
          "name": "",
          "type": "uint256"
        }
      ],
      "stateMutability": "view",
      "type": "function",
      "constant": true
    },
    {
      "inputs": [
        {
          "internalType": "address",
          "name": "owner",
          "type": "address"
        },
        {
          "internalType": "address",
          "name": "spender",
          "type": "address"
        }
      ],
      "name": "allowance",
      "outputs": [
        {
          "internalType": "uint256",
          "name": "",
          "type": "uint256"
        }
      ],
      "stateMutability": "view",
      "type": "function",
      "constant": true
    },
    {
      "inputs": [
        {
          "internalType": "address",
          "name": "spender",
          "type": "address"
        },
        {
          "internalType": "uint256",
          "name": "amount",
          "type": "uint256"
        }
      ],
      "name": "approve",
      "outputs": [
        {
          "internalType": "bool",
          "name": "",
          "type": "bool"
        }
      ],
      "stateMutability": "nonpayable",
      "type": "function"
    },
    {
      "inputs": [
        {
          "internalType": "address",
          "name": "account",
          "type": "address"
        }
      ],
      "name": "balanceOf",
      "outputs": [
        {
          "internalType": "uint256",
          "name": "",
          "type": "uint256"
        }
      ],
      "stateMutability": "view",
      "type": "function",
      "constant": true
    },
    {
      "inputs": [],
      "name": "decimals",
      "outputs": [
        {
          "internalType": "uint8",
          "name": "",
          "type": "uint8"
        }
      ],
      "stateMutability": "view",
      "type": "function",
      "constant": true
    },
    {
      "inputs": [
        {
          "internalType": "address",
          "name": "spender",
          "type": "address"
        },
        {
          "internalType": "uint256",
          "name": "subtractedValue",
          "type": "uint256"
        }
      ],
      "name": "decreaseAllowance",
      "outputs": [
        {
          "internalType": "bool",
          "name": "",
          "type": "bool"
        }
      ],
      "stateMutability": "nonpayable",
      "type": "function"
    },
    {
      "inputs": [
        {
          "internalType": "address",
          "name": "spender",
          "type": "address"
        },
        {
          "internalType": "uint256",
          "name": "addedValue",
          "type": "uint256"
        }
      ],
      "name": "increaseAllowance",
      "outputs": [
        {
          "internalType": "bool",
          "name": "",
          "type": "bool"
        }
      ],
      "stateMutability": "nonpayable",
      "type": "function"
    },
    {
      "inputs": [],
      "name": "listingCount",
      "outputs": [
        {
          "internalType": "uint256",
          "name": "",
          "type": "uint256"
        }
      ],
      "stateMutability": "view",
      "type": "function",
      "constant": true
    },
    {
      "inputs": [
        {
          "internalType": "uint256",
          "name": "",
          "type": "uint256"
        }
      ],
      "name": "listings",
      "outputs": [
        {
          "internalType": "address",
          "name": "seller",
          "type": "address"
        },
        {
          "internalType": "uint256",
          "name": "tokenAmount",
          "type": "uint256"
        },
        {
          "internalType": "uint256",
          "name": "price",
          "type": "uint256"
        },
        {
          "internalType": "bool",
          "name": "isActive",
          "type": "bool"
        }
      ],
      "stateMutability": "view",
      "type": "function",
      "constant": true
    },
    {
      "inputs": [],
      "name": "name",
      "outputs": [
        {
          "internalType": "string",
          "name": "",
          "type": "string"
        }
      ],
      "stateMutability": "view",
      "type": "function",
      "constant": true
    },
    {
      "inputs": [],
      "name": "symbol",
      "outputs": [
        {
          "internalType": "string",
          "name": "",
          "type": "string"
        }
      ],
      "stateMutability": "view",
      "type": "function",
      "constant": true
    },
    {
      "inputs": [],
      "name": "tokenPrice",
      "outputs": [
        {
          "internalType": "uint256",
          "name": "",
          "type": "uint256"
        }
      ],
      "stateMutability": "view",
      "type": "function",
      "constant": true
    },
    {
      "inputs": [],
      "name": "totalSupply",
      "outputs": [
        {
          "internalType": "uint256",
          "name": "",
          "type": "uint256"
        }
      ],
      "stateMutability": "view",
      "type": "function",
      "constant": true
    },
    {
      "inputs": [
        {
          "internalType": "address",
          "name": "to",
          "type": "address"
        },
        {
          "internalType": "uint256",
          "name": "amount",
          "type": "uint256"
        }
      ],
      "name": "transfer",
      "outputs": [
        {
          "internalType": "bool",
          "name": "",
          "type": "bool"
        }
      ],
      "stateMutability": "nonpayable",
      "type": "function"
    },
    {
      "inputs": [
        {
          "internalType": "address",
          "name": "from",
          "type": "address"
        },
        {
          "internalType": "address",
          "name": "to",
          "type": "address"
        },
        {
          "internalType": "uint256",
          "name": "amount",
          "type": "uint256"
        }
      ],
      "name": "transferFrom",
      "outputs": [
        {
          "internalType": "bool",
          "name": "",
          "type": "bool"
        }
      ],
      "stateMutability": "nonpayable",
      "type": "function"
    },
    {
      "inputs": [
        {
          "internalType": "address",
          "name": "_address",
          "type": "address"
        },
        {
          "internalType": "uint256",
          "name": "_tokenCount",
          "type": "uint256"
        }
      ],
      "name": "burnToken",
      "outputs": [],
      "stateMutability": "nonpayable",
      "type": "function"
    },
    {
      "inputs": [
        {
          "internalType": "address",
          "name": "_account",
          "type": "address"
        }
      ],
      "name": "grantGovernmentPrivilege",
      "outputs": [],
      "stateMutability": "nonpayable",
      "type": "function"
    },
    {
      "inputs": [
        {
          "internalType": "uint256",
          "name": "newPrice",
          "type": "uint256"
        }
      ],
      "name": "setTokenPrice",
      "outputs": [],
      "stateMutability": "nonpayable",
      "type": "function"
    },
    {
      "inputs": [
        {
          "internalType": "address",
          "name": "_industry",
          "type": "address"
        },
        {
          "internalType": "uint256",
          "name": "_maxAllowance",
          "type": "uint256"
        },
        {
          "internalType": "uint256",
          "name": "_tokenCount",
          "type": "uint256"
        }
      ],
      "name": "initialAllowance",
      "outputs": [],
      "stateMutability": "nonpayable",
      "type": "function"
    },
    {
      "inputs": [
        {
          "internalType": "address",
          "name": "_account",
          "type": "address"
        }
      ],
      "name": "grantIndustryPrivilege",
      "outputs": [],
      "stateMutability": "nonpayable",
      "type": "function"
    },
    {
      "inputs": [
        {
          "internalType": "address",
          "name": "_to",
          "type": "address"
        },
        {
          "internalType": "uint256",
          "name": "_tokenCount",
          "type": "uint256"
        },
        {
          "internalType": "address payable",
          "name": "_govAddress",
          "type": "address"
        }
      ],
      "name": "buyToken",
      "outputs": [],
      "stateMutability": "payable",
      "type": "function",
      "payable": true
    },
    {
      "inputs": [
        {
          "internalType": "uint256",
          "name": "_tokenCount",
          "type": "uint256"
        },
        {
          "internalType": "uint256",
          "name": "_price",
          "type": "uint256"
        }
      ],
      "name": "listTokensForSale",
      "outputs": [],
      "stateMutability": "nonpayable",
      "type": "function"
    },
    {
      "inputs": [
        {
          "internalType": "uint256",
          "name": "_listingId",
          "type": "uint256"
        }
      ],
      "name": "buyTokensFromMarketpalce",
      "outputs": [],
      "stateMutability": "payable",
      "type": "function",
      "payable": true
    }
  ],
  "bytecode": "0x60806040523480156200001157600080fd5b50604051620039cd380380620039cd8339818101604052810190620000379190620003cd565b6040518060400160405280600b81526020017f477265656e4372656469740000000000000000000000000000000000000000008152506040518060400160405280600381526020017f47435400000000000000000000000000000000000000000000000000000000008152508160039080519060200190620000bb92919062000306565b508060049080519060200190620000d492919062000306565b50505033600560006101000a81548173ffffffffffffffffffffffffffffffffffffffff021916908373ffffffffffffffffffffffffffffffffffffffff160217905550806006819055506200017e600560009054906101000a900473ffffffffffffffffffffffffffffffffffffffff16620001566200018560201b60201c565b600a62000164919062000554565b606462000172919062000691565b6200018e60201b60201c565b50620007c4565b60006012905090565b600073ffffffffffffffffffffffffffffffffffffffff168273ffffffffffffffffffffffffffffffffffffffff16141562000201576040517f08c379a0000000000000000000000000000000000000000000000000000000008152600401620001f8906200044c565b60405180910390fd5b6200021560008383620002fc60201b60201c565b80600260008282546200022991906200049c565b92505081905550806000808473ffffffffffffffffffffffffffffffffffffffff1673ffffffffffffffffffffffffffffffffffffffff168152602001908152602001600020600082825401925050819055508173ffffffffffffffffffffffffffffffffffffffff16600073ffffffffffffffffffffffffffffffffffffffff167fddf252ad1be2c89b69c2b068fc378daa952ba7f163c4a11628f55a4df523b3ef83604051620002dc91906200046e565b60405180910390a3620002f8600083836200030160201b60201c565b5050565b505050565b505050565b828054620003149062000709565b90600052602060002090601f01602090048101928262000338576000855562000384565b82601f106200035357805160ff191683800117855562000384565b8280016001018555821562000384579182015b828111156200038357825182559160200191906001019062000366565b5b50905062000393919062000397565b5090565b5b80821115620003b257600081600090555060010162000398565b5090565b600081519050620003c781620007aa565b92915050565b600060208284031215620003e057600080fd5b6000620003f084828501620003b6565b91505092915050565b600062000408601f836200048b565b91507f45524332303a206d696e7420746f20746865207a65726f2061646472657373006000830152602082019050919050565b6200044681620006f2565b82525050565b600060208201905081810360008301526200046781620003f9565b9050919050565b60006020820190506200048560008301846200043b565b92915050565b600082825260208201905092915050565b6000620004a982620006f2565b9150620004b683620006f2565b9250827fffffffffffffffffffffffffffffffffffffffffffffffffffffffffffffffff03821115620004ee57620004ed6200073f565b5b828201905092915050565b6000808291508390505b60018511156200054b578086048111156200052357620005226200073f565b5b6001851615620005335780820291505b808102905062000543856200079d565b945062000503565b94509492505050565b60006200056182620006f2565b91506200056e83620006fc565b92506200059d7fffffffffffffffffffffffffffffffffffffffffffffffffffffffffffffffff8484620005a5565b905092915050565b600082620005b757600190506200068a565b81620005c757600090506200068a565b8160018114620005e05760028114620005eb5762000621565b60019150506200068a565b60ff8411156200060057620005ff6200073f565b5b8360020a9150848211156200061a57620006196200073f565b5b506200068a565b5060208310610133831016604e8410600b84101617156200065b5782820a9050838111156200065557620006546200073f565b5b6200068a565b6200066a8484846001620004f9565b925090508184048111156200068457620006836200073f565b5b81810290505b9392505050565b60006200069e82620006f2565b9150620006ab83620006f2565b9250817fffffffffffffffffffffffffffffffffffffffffffffffffffffffffffffffff0483118215151615620006e757620006e66200073f565b5b828202905092915050565b6000819050919050565b600060ff82169050919050565b600060028204905060018216806200072257607f821691505b602082108114156200073957620007386200076e565b5b50919050565b7f4e487b7100000000000000000000000000000000000000000000000000000000600052601160045260246000fd5b7f4e487b7100000000000000000000000000000000000000000000000000000000600052602260045260246000fd5b60008160011c9050919050565b620007b581620006f2565b8114620007c157600080fd5b50565b6131f980620007d46000396000f3fe6080604052600436106101815760003560e01c80637ff9b596116100d1578063cb8c0c1d1161008a578063dd62ed3e11610064578063dd62ed3e146105a0578063de74e57b146105dd578063f13e83311461061d578063fbd9be8b1461065a57610181565b8063cb8c0c1d14610511578063d1df306c1461054e578063d22b2ed01461057757610181565b80637ff9b596146103fa57806395d89b41146104255780639a83dc3d14610450578063a457c2d71461046c578063a9059cbb146104a9578063a9b07c26146104e657610181565b8063313ce5671161013e5780635fe01930116101185780635fe019301461034f578063692bf4a8146103785780636a61e5fc1461039457806370a08231146103bd57610181565b8063313ce567146102be57806339509351146102e957806351e73a161461032657610181565b806306fdde0314610186578063095ea7b3146101b15780630a8c8f20146101ee57806318160ddd1461022b57806323b872dd146102565780632ea665cd14610293575b600080fd5b34801561019257600080fd5b5061019b610683565b6040516101a89190612a1b565b60405180910390f35b3480156101bd57600080fd5b506101d860048036038101906101d3919061202f565b610715565b6040516101e59190612a00565b60405180910390f35b3480156101fa57600080fd5b5061021560048036038101906102109190611f7b565b610738565b6040516102229190612a00565b60405180910390f35b34801561023757600080fd5b50610240610758565b60405161024d9190612d1d565b60405180910390f35b34801561026257600080fd5b5061027d60048036038101906102789190611fe0565b610762565b60405161028a9190612a00565b60405180910390f35b34801561029f57600080fd5b506102a8610791565b6040516102b591906129a0565b60405180910390f35b3480156102ca57600080fd5b506102d36107b7565b6040516102e09190612d61565b60405180910390f35b3480156102f557600080fd5b50610310600480360381019061030b919061202f565b6107c0565b60405161031d9190612a00565b60405180910390f35b34801561033257600080fd5b5061034d600480360381019061034891906120ba565b6107f7565b005b34801561035b57600080fd5b5061037660048036038101906103719190611f7b565b610a42565b005b610392600480360381019061038d919061206b565b610a9d565b005b3480156103a057600080fd5b506103bb60048036038101906103b69190612109565b610dac565b005b3480156103c957600080fd5b506103e460048036038101906103df9190611f7b565b610e49565b6040516103f19190612d1d565b60405180910390f35b34801561040657600080fd5b5061040f610e91565b60405161041c9190612d1d565b60405180910390f35b34801561043157600080fd5b5061043a610e97565b6040516104479190612a1b565b60405180910390f35b61046a60048036038101906104659190612109565b610f29565b005b34801561047857600080fd5b50610493600480360381019061048e919061202f565b6111da565b6040516104a09190612a00565b60405180910390f35b3480156104b557600080fd5b506104d060048036038101906104cb919061202f565b611251565b6040516104dd9190612a00565b60405180910390f35b3480156104f257600080fd5b506104fb611274565b6040516105089190612d1d565b60405180910390f35b34801561051d57600080fd5b5061053860048036038101906105339190611f7b565b61127a565b6040516105459190612d1d565b60405180910390f35b34801561055a57600080fd5b506105756004803603810190610570919061202f565b611292565b005b34801561058357600080fd5b5061059e60048036038101906105999190611f7b565b611327565b005b3480156105ac57600080fd5b506105c760048036038101906105c29190611fa4565b6113ac565b6040516105d49190612d1d565b60405180910390f35b3480156105e957600080fd5b5061060460048036038101906105ff9190612109565b611433565b60405161061494939291906129bb565b60405180910390f35b34801561062957600080fd5b50610644600480360381019061063f9190611f7b565b611490565b6040516106519190612a00565b60405180910390f35b34801561066657600080fd5b50610681600480360381019061067c9190612132565b6114b0565b005b60606003805461069290613087565b80601f01602080910402602001604051908101604052809291908181526020018280546106be90613087565b801561070b5780601f106106e05761010080835404028352916020019161070b565b820191906000526020600020905b8154815290600101906020018083116106ee57829003601f168201915b5050505050905090565b600080610720611736565b905061072d81858561173e565b600191505092915050565b60086020528060005260406000206000915054906101000a900460ff1681565b6000600254905090565b60008061076d611736565b905061077a858285611909565b610785858585611995565b60019150509392505050565b600560009054906101000a900473ffffffffffffffffffffffffffffffffffffffff1681565b60006012905090565b6000806107cb611736565b90506107ec8185856107dd85896113ac565b6107e79190612d98565b61173e565b600191505092915050565b60011515600760003373ffffffffffffffffffffffffffffffffffffffff1673ffffffffffffffffffffffffffffffffffffffff16815260200190815260200160002060009054906101000a900460ff1615151461088a576040517f08c379a000000000000000000000000000000000000000000000000000000000815260040161088190612c9d565b60405180910390fd5b600073ffffffffffffffffffffffffffffffffffffffff168373ffffffffffffffffffffffffffffffffffffffff1614156108fa576040517f08c379a00000000000000000000000000000000000000000000000000000000081526004016108f190612c7d565b60405180910390fd5b60011515600860008573ffffffffffffffffffffffffffffffffffffffff1673ffffffffffffffffffffffffffffffffffffffff16815260200190815260200160002060009054906101000a900460ff1615151461098d576040517f08c379a000000000000000000000000000000000000000000000000000000000815260040161098490612bdd565b60405180910390fd5b600081116109d0576040517f08c379a00000000000000000000000000000000000000000000000000000000081526004016109c790612add565b60405180910390fd5b81600960008573ffffffffffffffffffffffffffffffffffffffff1673ffffffffffffffffffffffffffffffffffffffff16815260200190815260200160002081905550610a3d3384610a216107b7565b600a610a2d9190612e41565b84610a389190612f5f565b611995565b505050565b6001600860008373ffffffffffffffffffffffffffffffffffffffff1673ffffffffffffffffffffffffffffffffffffffff16815260200190815260200160002060006101000a81548160ff02191690831515021790555050565b60011515600860003373ffffffffffffffffffffffffffffffffffffffff1673ffffffffffffffffffffffffffffffffffffffff16815260200190815260200160002060009054906101000a900460ff16151514610b30576040517f08c379a0000000000000000000000000000000000000000000000000000000008152600401610b2790612b5d565b60405180910390fd5b60008211610b73576040517f08c379a0000000000000000000000000000000000000000000000000000000008152600401610b6a90612bbd565b60405180910390fd5b3482600654610b829190612f5f565b14610bc2576040517f08c379a0000000000000000000000000000000000000000000000000000000008152600401610bb990612cbd565b60405180910390fd5b81600960008573ffffffffffffffffffffffffffffffffffffffff1673ffffffffffffffffffffffffffffffffffffffff168152602001908152602001600020541015610c44576040517f08c379a0000000000000000000000000000000000000000000000000000000008152600401610c3b90612a5d565b60405180910390fd5b610c6c83610c506107b7565b600a610c5c9190612e41565b84610c679190612f5f565b611c0d565b8073ffffffffffffffffffffffffffffffffffffffff166108fc349081150290604051600060405180830381858888f19350505050158015610cb2573d6000803e3d6000fd5b5081600960008573ffffffffffffffffffffffffffffffffffffffff1673ffffffffffffffffffffffffffffffffffffffff16815260200190815260200160002054610cfe9190612fb9565b600960008573ffffffffffffffffffffffffffffffffffffffff1673ffffffffffffffffffffffffffffffffffffffff16815260200190815260200160002081905550818173ffffffffffffffffffffffffffffffffffffffff168473ffffffffffffffffffffffffffffffffffffffff167f5fc4872a04fc9ef9e80a6593db4a82874ea60fbc1f93bd4d0b7a00d4aa8ae55634604051610d9f9190612d1d565b60405180910390a4505050565b60011515600760003373ffffffffffffffffffffffffffffffffffffffff1673ffffffffffffffffffffffffffffffffffffffff16815260200190815260200160002060009054906101000a900460ff16151514610e3f576040517f08c379a0000000000000000000000000000000000000000000000000000000008152600401610e3690612c9d565b60405180910390fd5b8060068190555050565b60008060008373ffffffffffffffffffffffffffffffffffffffff1673ffffffffffffffffffffffffffffffffffffffff168152602001908152602001600020549050919050565b60065481565b606060048054610ea690613087565b80601f0160208091040260200160405190810160405280929190818152602001828054610ed290613087565b8015610f1f5780601f10610ef457610100808354040283529160200191610f1f565b820191906000526020600020905b815481529060010190602001808311610f0257829003601f168201915b5050505050905090565b60011515600860003373ffffffffffffffffffffffffffffffffffffffff1673ffffffffffffffffffffffffffffffffffffffff16815260200190815260200160002060009054906101000a900460ff16151514610fbc576040517f08c379a0000000000000000000000000000000000000000000000000000000008152600401610fb390612b5d565b60405180910390fd5b6000600a600083815260200190815260200160002090508060030160009054906101000a900460ff16611024576040517f08c379a000000000000000000000000000000000000000000000000000000000815260040161101b90612b9d565b60405180910390fd5b8060020154341461106a576040517f08c379a000000000000000000000000000000000000000000000000000000000815260040161106190612b3d565b60405180910390fd5b6110bb8160000160009054906101000a900473ffffffffffffffffffffffffffffffffffffffff163361109b6107b7565b600a6110a79190612e41565b84600101546110b69190612f5f565b611995565b8060000160009054906101000a900473ffffffffffffffffffffffffffffffffffffffff1673ffffffffffffffffffffffffffffffffffffffff166108fc349081150290604051600060405180830381858888f19350505050158015611125573d6000803e3d6000fd5b5060008160030160006101000a81548160ff0219169083151502179055508060000160009054906101000a900473ffffffffffffffffffffffffffffffffffffffff1673ffffffffffffffffffffffffffffffffffffffff163373ffffffffffffffffffffffffffffffffffffffff167f85f10505be3ed7bf7f1e02cf6bf521e67cd27c4b1e91954cc55d67c262fa64ff836001015484600201546040516111ce929190612d38565b60405180910390a35050565b6000806111e5611736565b905060006111f382866113ac565b905083811015611238576040517f08c379a000000000000000000000000000000000000000000000000000000000815260040161122f90612cdd565b60405180910390fd5b611245828686840361173e565b60019250505092915050565b60008061125c611736565b9050611269818585611995565b600191505092915050565b600b5481565b60096020528060005260406000206000915090505481565b61129a6107b7565b600a6112a69190612e41565b816112b19190612f5f565b6112ba83610e49565b10156112fb576040517f08c379a00000000000000000000000000000000000000000000000000000000081526004016112f290612c5d565b60405180910390fd5b611323826113076107b7565b600a6113139190612e41565b8361131e9190612f5f565b611d64565b5050565b6001600760008373ffffffffffffffffffffffffffffffffffffffff1673ffffffffffffffffffffffffffffffffffffffff16815260200190815260200160002060006101000a81548160ff0219169083151502179055506113a93361138b6107b7565b600a6113979190612e41565b6103e86113a49190612f5f565b611c0d565b50565b6000600160008473ffffffffffffffffffffffffffffffffffffffff1673ffffffffffffffffffffffffffffffffffffffff16815260200190815260200160002060008373ffffffffffffffffffffffffffffffffffffffff1673ffffffffffffffffffffffffffffffffffffffff16815260200190815260200160002054905092915050565b600a6020528060005260406000206000915090508060000160009054906101000a900473ffffffffffffffffffffffffffffffffffffffff16908060010154908060020154908060030160009054906101000a900460ff16905084565b60076020528060005260406000206000915054906101000a900460ff1681565b60011515600860003373ffffffffffffffffffffffffffffffffffffffff1673ffffffffffffffffffffffffffffffffffffffff16815260200190815260200160002060009054906101000a900460ff16151514611543576040517f08c379a000000000000000000000000000000000000000000000000000000000815260040161153a90612b5d565b60405180910390fd5b8161154c6107b7565b600a6115589190612e41565b816115639190612f5f565b61156c33610e49565b10156115ad576040517f08c379a00000000000000000000000000000000000000000000000000000000081526004016115a490612b1d565b60405180910390fd5b6000831180156115bd5750600082115b6115fc576040517f08c379a00000000000000000000000000000000000000000000000000000000081526004016115f390612b7d565b60405180910390fd5b60405180608001604052803373ffffffffffffffffffffffffffffffffffffffff16815260200184815260200183815260200160011515815250600a6000600b54815260200190815260200160002060008201518160000160006101000a81548173ffffffffffffffffffffffffffffffffffffffff021916908373ffffffffffffffffffffffffffffffffffffffff160217905550602082015181600101556040820151816002015560608201518160030160006101000a81548160ff0219169083151502179055509050503373ffffffffffffffffffffffffffffffffffffffff167fcf412bfe866866664047e9f9e38cc21c13173a37c85de5d29b65f1822231ec008484604051611711929190612d38565b60405180910390a2600b600081548092919061172c906130b9565b9190505550505050565b600033905090565b600073ffffffffffffffffffffffffffffffffffffffff168373ffffffffffffffffffffffffffffffffffffffff1614156117ae576040517f08c379a00000000000000000000000000000000000000000000000000000000081526004016117a590612c3d565b60405180910390fd5b600073ffffffffffffffffffffffffffffffffffffffff168273ffffffffffffffffffffffffffffffffffffffff16141561181e576040517f08c379a000000000000000000000000000000000000000000000000000000000815260040161181590612a9d565b60405180910390fd5b80600160008573ffffffffffffffffffffffffffffffffffffffff1673ffffffffffffffffffffffffffffffffffffffff16815260200190815260200160002060008473ffffffffffffffffffffffffffffffffffffffff1673ffffffffffffffffffffffffffffffffffffffff168152602001908152602001600020819055508173ffffffffffffffffffffffffffffffffffffffff168373ffffffffffffffffffffffffffffffffffffffff167f8c5be1e5ebec7d5bd14f71427d1e84f3dd0314c0f7b2291e5b200ac8c7c3b925836040516118fc9190612d1d565b60405180910390a3505050565b600061191584846113ac565b90507fffffffffffffffffffffffffffffffffffffffffffffffffffffffffffffffff811461198f5781811015611981576040517f08c379a000000000000000000000000000000000000000000000000000000000815260040161197890612abd565b60405180910390fd5b61198e848484840361173e565b5b50505050565b600073ffffffffffffffffffffffffffffffffffffffff168373ffffffffffffffffffffffffffffffffffffffff161415611a05576040517f08c379a00000000000000000000000000000000000000000000000000000000081526004016119fc90612c1d565b60405180910390fd5b600073ffffffffffffffffffffffffffffffffffffffff168273ffffffffffffffffffffffffffffffffffffffff161415611a75576040517f08c379a0000000000000000000000000000000000000000000000000000000008152600401611a6c90612a3d565b60405180910390fd5b611a80838383611f32565b60008060008573ffffffffffffffffffffffffffffffffffffffff1673ffffffffffffffffffffffffffffffffffffffff16815260200190815260200160002054905081811015611b06576040517f08c379a0000000000000000000000000000000000000000000000000000000008152600401611afd90612afd565b60405180910390fd5b8181036000808673ffffffffffffffffffffffffffffffffffffffff1673ffffffffffffffffffffffffffffffffffffffff16815260200190815260200160002081905550816000808573ffffffffffffffffffffffffffffffffffffffff1673ffffffffffffffffffffffffffffffffffffffff168152602001908152602001600020600082825401925050819055508273ffffffffffffffffffffffffffffffffffffffff168473ffffffffffffffffffffffffffffffffffffffff167fddf252ad1be2c89b69c2b068fc378daa952ba7f163c4a11628f55a4df523b3ef84604051611bf49190612d1d565b60405180910390a3611c07848484611f37565b50505050565b600073ffffffffffffffffffffffffffffffffffffffff168273ffffffffffffffffffffffffffffffffffffffff161415611c7d576040517f08c379a0000000000000000000000000000000000000000000000000000000008152600401611c7490612cfd565b60405180910390fd5b611c8960008383611f32565b8060026000828254611c9b9190612d98565b92505081905550806000808473ffffffffffffffffffffffffffffffffffffffff1673ffffffffffffffffffffffffffffffffffffffff168152602001908152602001600020600082825401925050819055508173ffffffffffffffffffffffffffffffffffffffff16600073ffffffffffffffffffffffffffffffffffffffff167fddf252ad1be2c89b69c2b068fc378daa952ba7f163c4a11628f55a4df523b3ef83604051611d4c9190612d1d565b60405180910390a3611d6060008383611f37565b5050565b600073ffffffffffffffffffffffffffffffffffffffff168273ffffffffffffffffffffffffffffffffffffffff161415611dd4576040517f08c379a0000000000000000000000000000000000000000000000000000000008152600401611dcb90612bfd565b60405180910390fd5b611de082600083611f32565b60008060008473ffffffffffffffffffffffffffffffffffffffff1673ffffffffffffffffffffffffffffffffffffffff16815260200190815260200160002054905081811015611e66576040517f08c379a0000000000000000000000000000000000000000000000000000000008152600401611e5d90612a7d565b60405180910390fd5b8181036000808573ffffffffffffffffffffffffffffffffffffffff1673ffffffffffffffffffffffffffffffffffffffff1681526020019081526020016000208190555081600260008282540392505081905550600073ffffffffffffffffffffffffffffffffffffffff168373ffffffffffffffffffffffffffffffffffffffff167fddf252ad1be2c89b69c2b068fc378daa952ba7f163c4a11628f55a4df523b3ef84604051611f199190612d1d565b60405180910390a3611f2d83600084611f37565b505050565b505050565b505050565b600081359050611f4b8161317e565b92915050565b600081359050611f6081613195565b92915050565b600081359050611f75816131ac565b92915050565b600060208284031215611f8d57600080fd5b6000611f9b84828501611f3c565b91505092915050565b60008060408385031215611fb757600080fd5b6000611fc585828601611f3c565b9250506020611fd685828601611f3c565b9150509250929050565b600080600060608486031215611ff557600080fd5b600061200386828701611f3c565b935050602061201486828701611f3c565b925050604061202586828701611f66565b9150509250925092565b6000806040838503121561204257600080fd5b600061205085828601611f3c565b925050602061206185828601611f66565b9150509250929050565b60008060006060848603121561208057600080fd5b600061208e86828701611f3c565b935050602061209f86828701611f66565b92505060406120b086828701611f51565b9150509250925092565b6000806000606084860312156120cf57600080fd5b60006120dd86828701611f3c565b93505060206120ee86828701611f66565b92505060406120ff86828701611f66565b9150509250925092565b60006020828403121561211b57600080fd5b600061212984828501611f66565b91505092915050565b6000806040838503121561214557600080fd5b600061215385828601611f66565b925050602061216485828601611f66565b9150509250929050565b61217781612fff565b82525050565b61218681612fed565b82525050565b61219581613011565b82525050565b60006121a682612d7c565b6121b08185612d87565b93506121c0818560208601613054565b6121c981613160565b840191505092915050565b60006121e1602383612d87565b91507f45524332303a207472616e7366657220746f20746865207a65726f206164647260008301527f65737300000000000000000000000000000000000000000000000000000000006020830152604082019050919050565b6000612247601283612d87565b91507f416c6c6f77616e636520657863656564656400000000000000000000000000006000830152602082019050919050565b6000612287602283612d87565b91507f45524332303a206275726e20616d6f756e7420657863656564732062616c616e60008301527f63650000000000000000000000000000000000000000000000000000000000006020830152604082019050919050565b60006122ed602283612d87565b91507f45524332303a20617070726f766520746f20746865207a65726f20616464726560008301527f73730000000000000000000000000000000000000000000000000000000000006020830152604082019050919050565b6000612353601d83612d87565b91507f45524332303a20696e73756666696369656e7420616c6c6f77616e63650000006000830152602082019050919050565b6000612393602283612d87565b91507f746f6b656e20436f756e74206d7573742062652067726561746572207468616e60008301527f20300000000000000000000000000000000000000000000000000000000000006020830152604082019050919050565b60006123f9602683612d87565b91507f45524332303a207472616e7366657220616d6f756e742065786365656473206260008301527f616c616e636500000000000000000000000000000000000000000000000000006020830152604082019050919050565b600061245f601483612d87565b91507f496e73756666696369656e742062616c616e63650000000000000000000000006000830152602082019050919050565b600061249f601883612d87565b91507f496e636f7272656374207061796d656e7420616d6f756e7400000000000000006000830152602082019050919050565b60006124df602d83612d87565b91507f6f6e6c7920696e64757374727920617574686f726974792063616e207573652060008301527f746869732066756e6374696f6e000000000000000000000000000000000000006020830152604082019050919050565b6000612545601783612d87565b91507f496e76616c696420616d6f756e74206f722070726963650000000000000000006000830152602082019050919050565b6000612585601583612d87565b91507f4c697374696e67206973206e6f742061637469766500000000000000000000006000830152602082019050919050565b60006125c5602283612d87565b91507f546f6b656e20636f756e74206d7573742062652067726561746572207468616e60008301527f20300000000000000000000000000000000000000000000000000000000000006020830152604082019050919050565b600061262b602183612d87565b91507f676976656e2061646472657373206d75737420626520616e20696e647573747260008301527f79000000000000000000000000000000000000000000000000000000000000006020830152604082019050919050565b6000612691602183612d87565b91507f45524332303a206275726e2066726f6d20746865207a65726f2061646472657360008301527f73000000000000000000000000000000000000000000000000000000000000006020830152604082019050919050565b60006126f7602583612d87565b91507f45524332303a207472616e736665722066726f6d20746865207a65726f20616460008301527f64726573730000000000000000000000000000000000000000000000000000006020830152604082019050919050565b600061275d602483612d87565b91507f45524332303a20617070726f76652066726f6d20746865207a65726f2061646460008301527f72657373000000000000000000000000000000000000000000000000000000006020830152604082019050919050565b60006127c3601983612d87565b91507f746f6b656e20636f756e74206973206e6f7420656e6f756768000000000000006000830152602082019050919050565b6000612803601183612d87565b91507f496e76616c6964206164647265737365730000000000000000000000000000006000830152602082019050919050565b6000612843602f83612d87565b91507f6f6e6c7920676f7665726e6d656e7420617574686f726974792063616e20757360008301527f6520746869732066756e6374696f6e00000000000000000000000000000000006020830152604082019050919050565b60006128a9601083612d87565b91507f496e636f727265637420616d6f756e74000000000000000000000000000000006000830152602082019050919050565b60006128e9602583612d87565b91507f45524332303a2064656372656173656420616c6c6f77616e63652062656c6f7760008301527f207a65726f0000000000000000000000000000000000000000000000000000006020830152604082019050919050565b600061294f601f83612d87565b91507f45524332303a206d696e7420746f20746865207a65726f2061646472657373006000830152602082019050919050565b61298b8161303d565b82525050565b61299a81613047565b82525050565b60006020820190506129b5600083018461216e565b92915050565b60006080820190506129d0600083018761217d565b6129dd6020830186612982565b6129ea6040830185612982565b6129f7606083018461218c565b95945050505050565b6000602082019050612a15600083018461218c565b92915050565b60006020820190508181036000830152612a35818461219b565b905092915050565b60006020820190508181036000830152612a56816121d4565b9050919050565b60006020820190508181036000830152612a768161223a565b9050919050565b60006020820190508181036000830152612a968161227a565b9050919050565b60006020820190508181036000830152612ab6816122e0565b9050919050565b60006020820190508181036000830152612ad681612346565b9050919050565b60006020820190508181036000830152612af681612386565b9050919050565b60006020820190508181036000830152612b16816123ec565b9050919050565b60006020820190508181036000830152612b3681612452565b9050919050565b60006020820190508181036000830152612b5681612492565b9050919050565b60006020820190508181036000830152612b76816124d2565b9050919050565b60006020820190508181036000830152612b9681612538565b9050919050565b60006020820190508181036000830152612bb681612578565b9050919050565b60006020820190508181036000830152612bd6816125b8565b9050919050565b60006020820190508181036000830152612bf68161261e565b9050919050565b60006020820190508181036000830152612c1681612684565b9050919050565b60006020820190508181036000830152612c36816126ea565b9050919050565b60006020820190508181036000830152612c5681612750565b9050919050565b60006020820190508181036000830152612c76816127b6565b9050919050565b60006020820190508181036000830152612c96816127f6565b9050919050565b60006020820190508181036000830152612cb681612836565b9050919050565b60006020820190508181036000830152612cd68161289c565b9050919050565b60006020820190508181036000830152612cf6816128dc565b9050919050565b60006020820190508181036000830152612d1681612942565b9050919050565b6000602082019050612d326000830184612982565b92915050565b6000604082019050612d4d6000830185612982565b612d5a6020830184612982565b9392505050565b6000602082019050612d766000830184612991565b92915050565b600081519050919050565b600082825260208201905092915050565b6000612da38261303d565b9150612dae8361303d565b9250827fffffffffffffffffffffffffffffffffffffffffffffffffffffffffffffffff03821115612de357612de2613102565b5b828201905092915050565b6000808291508390505b6001851115612e3857808604811115612e1457612e13613102565b5b6001851615612e235780820291505b8081029050612e3185613171565b9450612df8565b94509492505050565b6000612e4c8261303d565b9150612e5783613047565b9250612e847fffffffffffffffffffffffffffffffffffffffffffffffffffffffffffffffff8484612e8c565b905092915050565b600082612e9c5760019050612f58565b81612eaa5760009050612f58565b8160018114612ec05760028114612eca57612ef9565b6001915050612f58565b60ff841115612edc57612edb613102565b5b8360020a915084821115612ef357612ef2613102565b5b50612f58565b5060208310610133831016604e8410600b8410161715612f2e5782820a905083811115612f2957612f28613102565b5b612f58565b612f3b8484846001612dee565b92509050818404811115612f5257612f51613102565b5b81810290505b9392505050565b6000612f6a8261303d565b9150612f758361303d565b9250817fffffffffffffffffffffffffffffffffffffffffffffffffffffffffffffffff0483118215151615612fae57612fad613102565b5b828202905092915050565b6000612fc48261303d565b9150612fcf8361303d565b925082821015612fe257612fe1613102565b5b828203905092915050565b6000612ff88261301d565b9050919050565b600061300a8261301d565b9050919050565b60008115159050919050565b600073ffffffffffffffffffffffffffffffffffffffff82169050919050565b6000819050919050565b600060ff82169050919050565b60005b83811015613072578082015181840152602081019050613057565b83811115613081576000848401525b50505050565b6000600282049050600182168061309f57607f821691505b602082108114156130b3576130b2613131565b5b50919050565b60006130c48261303d565b91507fffffffffffffffffffffffffffffffffffffffffffffffffffffffffffffffff8214156130f7576130f6613102565b5b600182019050919050565b7f4e487b7100000000000000000000000000000000000000000000000000000000600052601160045260246000fd5b7f4e487b7100000000000000000000000000000000000000000000000000000000600052602260045260246000fd5b6000601f19601f8301169050919050565b60008160011c9050919050565b61318781612fed565b811461319257600080fd5b50565b61319e81612fff565b81146131a957600080fd5b50565b6131b58161303d565b81146131c057600080fd5b5056fea264697066735822122001ec8063e3a23639721eca3ee60534deff6d8a1504aa188a0163d355e46ddcec64736f6c63430008000033",
  "immutableReferences": {},
  "source": "// SPDX-License-Identifier: MIT\npragma solidity ^0.8.0;\n\nimport \"@openzeppelin/contracts/token/ERC20/ERC20.sol\";\n\ncontract GreenCreditToken is ERC20 {\n    address payable public GreenChainPlatformOwner;\n    uint public tokenPrice;\n\n    mapping(address => bool) public GovernmentAccounts;\n    mapping(address => bool) public IndustryAccounts;\n\n    mapping(address => uint) public IndustryAllowance;\n\n    constructor(uint initTokenPrice) ERC20(\"GreenCredit\", \"GCT\") {\n        GreenChainPlatformOwner = payable(msg.sender);\n        tokenPrice = initTokenPrice;\n        _mint(GreenChainPlatformOwner, 100 * 10**decimals());\n    }\n\n    modifier onlyPlatformOwner() {\n        require(\n            msg.sender != GreenChainPlatformOwner,\n            \"you are not a platform owner\"\n        );\n        _;\n    }\n\n    function burnToken(address _address, uint _tokenCount) public {\n        require(\n            balanceOf(_address) >= _tokenCount * 10**decimals(),\n            \"token count is not enough\"\n        );\n        _burn(_address, _tokenCount * 10**decimals());\n    }\n\n    //Gov functionalities\n    function grantGovernmentPrivilege(address _account) public {\n        GovernmentAccounts[_account] = true;\n        _mint(msg.sender, 1000 * 10**decimals());\n    }\n\n    modifier onlyGovernment() {\n        require(\n            GovernmentAccounts[msg.sender] == true,\n            \"only government authority can use this function\"\n        );\n        _;\n    }\n\n    function setTokenPrice(uint newPrice) public onlyGovernment {\n        tokenPrice = newPrice;\n    }\n\n    function initialAllowance(\n        address _industry,\n        uint _maxAllowance,\n        uint _tokenCount\n    ) public onlyGovernment {\n        require(_industry != address(0), \"Invalid addresses\");\n        require(\n            IndustryAccounts[_industry] == true,\n            \"given address must be an industry\"\n        );\n        require(_tokenCount > 0, \"token Count must be greater than 0\");\n        IndustryAllowance[_industry] = _maxAllowance;\n        _transfer(msg.sender, _industry, _tokenCount * 10**decimals());\n    }\n\n    //Industry functionalities\n    function grantIndustryPrivilege(address _account) public {\n        IndustryAccounts[_account] = true;\n    }\n\n    modifier onlyIndustry() {\n        require(\n            IndustryAccounts[msg.sender] == true,\n            \"only industry authority can use this function\"\n        );\n        _;\n    }\n\n    event tokenPurchased(\n        address indexed _industryId,\n        address indexed _govId,\n        uint indexed _tokenCount,\n        uint _taxFee\n    );\n\n    // buy a token from Government and pay the tax fee for emission\n    function buyToken(\n        address _to,\n        uint _tokenCount,\n        address payable _govAddress\n    ) public payable onlyIndustry {\n        require(_tokenCount > 0, \"Token count must be greater than 0\");\n        require(tokenPrice * _tokenCount == msg.value, \"Incorrect amount\");\n        require(IndustryAllowance[_to] >= _tokenCount, \"Allowance exceeded\");\n\n        _mint(_to, _tokenCount * 10**decimals());\n        _govAddress.transfer(msg.value); // Pay the total cost to the Government\n        IndustryAllowance[_to] = IndustryAllowance[_to] - _tokenCount;\n        emit tokenPurchased(_to, _govAddress, _tokenCount, msg.value);\n    }\n\n    // ==== Carbon credit trading system ====\n\n    struct TokenListing {\n        address seller;\n        uint tokenAmount;\n        uint price;\n        bool isActive;\n    }\n\n    mapping(uint => TokenListing) public listings;\n    uint public listingCount;\n\n    event TokensListed(\n        address indexed seller,\n        uint tokenAmount,\n        uint price\n    );\n    event TokensPurchasedFromMarketplace(\n        address indexed buyer,\n        address indexed seller,\n        uint tokenAmount,\n        uint price\n    );\n\n    modifier validBalance(uint _tokenCount) {\n        require(\n            balanceOf(msg.sender) >= _tokenCount * 10**decimals(),\n            \"Insufficient balance\"\n        );\n        _;\n    }\n\n    function listTokensForSale(uint _tokenCount, uint _price)\n        public\n        onlyIndustry\n        validBalance(_tokenCount)\n    {\n        require(_tokenCount > 0 && _price > 0, \"Invalid amount or price\");\n\n        listings[listingCount] = TokenListing({\n            seller: msg.sender,\n            tokenAmount: _tokenCount,\n            price: _price,\n            isActive: true\n        });\n\n        emit TokensListed(msg.sender, _tokenCount, _price);\n        listingCount++;\n    }\n\n    // buy the listed token\n    function buyTokensFromMarketpalce(uint _listingId) public payable onlyIndustry {\n        TokenListing storage listing = listings[_listingId];\n        require(listing.isActive, \"Listing is not active\");\n        require(msg.value == listing.price, \"Incorrect payment amount\");\n\n        _transfer(\n            listing.seller,\n            msg.sender,\n            listing.tokenAmount * 10**decimals()\n        );\n\n        payable(listing.seller).transfer(msg.value);\n\n        listing.isActive = false;\n\n        emit TokensPurchasedFromMarketplace(\n            msg.sender,\n            listing.seller,\n            listing.tokenAmount,\n            listing.price\n        );\n    }\n}\n",
  "sourcePath": "/home/tenshkumar-k/Documents/GitHub/Green-Chain-PLI-Hackathon-2.0/contracts/GreenCreditToken.sol",
  "compiler": {
    "name": "solc",
    "version": "0.8.0+commit.c7dfd78e.Emscripten.clang"
  },
  "schemaVersion": "3.4.16",
  "updatedAt": "2023-12-05T11:39:21.442Z",
  "networkType": "ethereum",
  "devdoc": {
    "kind": "dev",
    "methods": {
      "allowance(address,address)": {
        "details": "See {IERC20-allowance}."
      },
      "approve(address,uint256)": {
        "details": "See {IERC20-approve}. NOTE: If `amount` is the maximum `uint256`, the allowance is not updated on `transferFrom`. This is semantically equivalent to an infinite approval. Requirements: - `spender` cannot be the zero address."
      },
      "balanceOf(address)": {
        "details": "See {IERC20-balanceOf}."
      },
      "decimals()": {
        "details": "Returns the number of decimals used to get its user representation. For example, if `decimals` equals `2`, a balance of `505` tokens should be displayed to a user as `5.05` (`505 / 10 ** 2`). Tokens usually opt for a value of 18, imitating the relationship between Ether and Wei. This is the default value returned by this function, unless it's overridden. NOTE: This information is only used for _display_ purposes: it in no way affects any of the arithmetic of the contract, including {IERC20-balanceOf} and {IERC20-transfer}."
      },
      "decreaseAllowance(address,uint256)": {
        "details": "Atomically decreases the allowance granted to `spender` by the caller. This is an alternative to {approve} that can be used as a mitigation for problems described in {IERC20-approve}. Emits an {Approval} event indicating the updated allowance. Requirements: - `spender` cannot be the zero address. - `spender` must have allowance for the caller of at least `subtractedValue`."
      },
      "increaseAllowance(address,uint256)": {
        "details": "Atomically increases the allowance granted to `spender` by the caller. This is an alternative to {approve} that can be used as a mitigation for problems described in {IERC20-approve}. Emits an {Approval} event indicating the updated allowance. Requirements: - `spender` cannot be the zero address."
      },
      "name()": {
        "details": "Returns the name of the token."
      },
      "symbol()": {
        "details": "Returns the symbol of the token, usually a shorter version of the name."
      },
      "totalSupply()": {
        "details": "See {IERC20-totalSupply}."
      },
      "transfer(address,uint256)": {
        "details": "See {IERC20-transfer}. Requirements: - `to` cannot be the zero address. - the caller must have a balance of at least `amount`."
      },
      "transferFrom(address,address,uint256)": {
        "details": "See {IERC20-transferFrom}. Emits an {Approval} event indicating the updated allowance. This is not required by the EIP. See the note at the beginning of {ERC20}. NOTE: Does not update the allowance if the current allowance is the maximum `uint256`. Requirements: - `from` and `to` cannot be the zero address. - `from` must have a balance of at least `amount`. - the caller must have allowance for ``from``'s tokens of at least `amount`."
      }
    },
    "version": 1
  },
  "userdoc": {
    "kind": "user",
    "methods": {},
    "version": 1
  }
}