{
  "contractName": "UserAuth",
  "abi": [
    {
      "anonymous": false,
      "inputs": [
        {
          "indexed": true,
          "internalType": "address",
          "name": "walletId",
          "type": "address"
        },
        {
          "indexed": true,
          "internalType": "string",
          "name": "name",
          "type": "string"
        },
        {
          "indexed": true,
          "internalType": "string",
          "name": "privilege",
          "type": "string"
        },
        {
          "indexed": false,
          "internalType": "string",
          "name": "authority",
          "type": "string"
        }
      ],
      "name": "UserRegistered",
      "type": "event"
    },
    {
      "inputs": [
        {
          "internalType": "address",
          "name": "",
          "type": "address"
        }
      ],
      "name": "Users",
      "outputs": [
        {
          "internalType": "string",
          "name": "name",
          "type": "string"
        },
        {
          "internalType": "string",
          "name": "privilege",
          "type": "string"
        },
        {
          "internalType": "string",
          "name": "authority",
          "type": "string"
        }
      ],
      "stateMutability": "view",
      "type": "function",
      "constant": true
    },
    {
      "inputs": [],
      "name": "userCount",
      "outputs": [
        {
          "internalType": "uint256",
          "name": "",
          "type": "uint256"
        }
      ],
      "stateMutability": "view",
      "type": "function",
      "constant": true
    },
    {
      "inputs": [
        {
          "internalType": "address",
          "name": "_userAddress",
          "type": "address"
        }
      ],
      "name": "checkUserExists",
      "outputs": [
        {
          "internalType": "bool",
          "name": "",
          "type": "bool"
        }
      ],
      "stateMutability": "view",
      "type": "function",
      "constant": true
    },
    {
      "inputs": [
        {
          "internalType": "address",
          "name": "_walletId",
          "type": "address"
        },
        {
          "internalType": "string",
          "name": "_name",
          "type": "string"
        },
        {
          "internalType": "string",
          "name": "_privilege",
          "type": "string"
        },
        {
          "internalType": "string",
          "name": "_authority",
          "type": "string"
        }
      ],
      "name": "setUser",
      "outputs": [],
      "stateMutability": "nonpayable",
      "type": "function"
    }
  ],
  "bytecode": "0x608060405234801561001057600080fd5b50610d29806100206000396000f3fe608060405234801561001057600080fd5b506004361061004c5760003560e01c806307973ccf14610051578063133f50f51461006f5780631d201a891461009f57806399b956a0146100bb575b600080fd5b6100596100ed565b6040516100669190610a74565b60405180910390f35b610089600480360381019061008491906106e3565b6100f3565b60405161009691906109eb565b60405180910390f35b6100b960048036038101906100b4919061070c565b6102b4565b005b6100d560048036038101906100d091906106e3565b610401565b6040516100e493929190610a28565b60405180910390f35b60005481565b6000604051602001610104906109c1565b60405160208183030381529060405280519060200120600160008473ffffffffffffffffffffffffffffffffffffffff1673ffffffffffffffffffffffffffffffffffffffff16815260200190815260200160002060010160405160200161016c9190610995565b6040516020818303038152906040528051906020012014806102185750604051602001610198906109ac565b60405160208183030381529060405280519060200120600160008473ffffffffffffffffffffffffffffffffffffffff1673ffffffffffffffffffffffffffffffffffffffff1681526020019081526020016000206001016040516020016102009190610995565b60405160208183030381529060405280519060200120145b806102ad575060405160200161022d906109d6565b60405160208183030381529060405280519060200120600160008473ffffffffffffffffffffffffffffffffffffffff1673ffffffffffffffffffffffffffffffffffffffff1681526020019081526020016000206001016040516020016102959190610995565b60405160208183030381529060405280519060200120145b9050919050565b604051806060016040528084815260200183815260200182815250600160008673ffffffffffffffffffffffffffffffffffffffff1673ffffffffffffffffffffffffffffffffffffffff168152602001908152602001600020600082015181600001908051906020019061032a9291906105c3565b5060208201518160010190805190602001906103479291906105c3565b5060408201518160020190805190602001906103649291906105c3565b50905050600160008082825461037a9190610b2c565b925050819055508160405161038f919061097e565b6040518091039020836040516103a5919061097e565b60405180910390208573ffffffffffffffffffffffffffffffffffffffff167f509c70f523067009f7db7f46db6956d7af8b679323680dc3821a8bad001ac1e1846040516103f39190610a06565b60405180910390a450505050565b600160205280600052604060002060009150905080600001805461042490610c0c565b80601f016020809104026020016040519081016040528092919081815260200182805461045090610c0c565b801561049d5780601f106104725761010080835404028352916020019161049d565b820191906000526020600020905b81548152906001019060200180831161048057829003601f168201915b5050505050908060010180546104b290610c0c565b80601f01602080910402602001604051908101604052809291908181526020018280546104de90610c0c565b801561052b5780601f106105005761010080835404028352916020019161052b565b820191906000526020600020905b81548152906001019060200180831161050e57829003601f168201915b50505050509080600201805461054090610c0c565b80601f016020809104026020016040519081016040528092919081815260200182805461056c90610c0c565b80156105b95780601f1061058e576101008083540402835291602001916105b9565b820191906000526020600020905b81548152906001019060200180831161059c57829003601f168201915b5050505050905083565b8280546105cf90610c0c565b90600052602060002090601f0160209004810192826105f15760008555610638565b82601f1061060a57805160ff1916838001178555610638565b82800160010185558215610638579182015b8281111561063757825182559160200191906001019061061c565b5b5090506106459190610649565b5090565b5b8082111561066257600081600090555060010161064a565b5090565b600061067961067484610ac0565b610a8f565b90508281526020810184848401111561069157600080fd5b61069c848285610bca565b509392505050565b6000813590506106b381610cdc565b92915050565b600082601f8301126106ca57600080fd5b81356106da848260208601610666565b91505092915050565b6000602082840312156106f557600080fd5b6000610703848285016106a4565b91505092915050565b6000806000806080858703121561072257600080fd5b6000610730878288016106a4565b945050602085013567ffffffffffffffff81111561074d57600080fd5b610759878288016106b9565b935050604085013567ffffffffffffffff81111561077657600080fd5b610782878288016106b9565b925050606085013567ffffffffffffffff81111561079f57600080fd5b6107ab878288016106b9565b91505092959194509250565b6107c081610b94565b82525050565b60006107d182610b05565b6107db8185610b10565b93506107eb818560208601610bd9565b6107f481610ccb565b840191505092915050565b600061080a82610b05565b6108148185610b21565b9350610824818560208601610bd9565b80840191505092915050565b6000815461083d81610c0c565b6108478186610b21565b945060018216600081146108625760018114610873576108a6565b60ff198316865281860193506108a6565b61087c85610af0565b60005b8381101561089e5781548189015260018201915060208101905061087f565b838801955050505b50505092915050565b60006108bc600883610b21565b91507f696e6475737472790000000000000000000000000000000000000000000000006000830152600882019050919050565b60006108fc600a83610b21565b91507f676f7665726e6d656e74000000000000000000000000000000000000000000006000830152600a82019050919050565b600061093c600a83610b21565b91507f696e646976696475616c000000000000000000000000000000000000000000006000830152600a82019050919050565b61097881610bc0565b82525050565b600061098a82846107ff565b915081905092915050565b60006109a18284610830565b915081905092915050565b60006109b7826108af565b9150819050919050565b60006109cc826108ef565b9150819050919050565b60006109e18261092f565b9150819050919050565b6000602082019050610a0060008301846107b7565b92915050565b60006020820190508181036000830152610a2081846107c6565b905092915050565b60006060820190508181036000830152610a4281866107c6565b90508181036020830152610a5681856107c6565b90508181036040830152610a6a81846107c6565b9050949350505050565b6000602082019050610a89600083018461096f565b92915050565b6000604051905081810181811067ffffffffffffffff82111715610ab657610ab5610c9c565b5b8060405250919050565b600067ffffffffffffffff821115610adb57610ada610c9c565b5b601f19601f8301169050602081019050919050565b60008190508160005260206000209050919050565b600081519050919050565b600082825260208201905092915050565b600081905092915050565b6000610b3782610bc0565b9150610b4283610bc0565b9250827fffffffffffffffffffffffffffffffffffffffffffffffffffffffffffffffff03821115610b7757610b76610c3e565b5b828201905092915050565b6000610b8d82610ba0565b9050919050565b60008115159050919050565b600073ffffffffffffffffffffffffffffffffffffffff82169050919050565b6000819050919050565b82818337600083830152505050565b60005b83811015610bf7578082015181840152602081019050610bdc565b83811115610c06576000848401525b50505050565b60006002820490506001821680610c2457607f821691505b60208210811415610c3857610c37610c6d565b5b50919050565b7f4e487b7100000000000000000000000000000000000000000000000000000000600052601160045260246000fd5b7f4e487b7100000000000000000000000000000000000000000000000000000000600052602260045260246000fd5b7f4e487b7100000000000000000000000000000000000000000000000000000000600052604160045260246000fd5b6000601f19601f8301169050919050565b610ce581610b82565b8114610cf057600080fd5b5056fea2646970667358221220fced2966d0861139eb57a115bebfb1bee6e9ed1c186e4a4224ad83baffc4545164736f6c63430008000033",
  "immutableReferences": {},
  "source": "// SPDX-License-Identifier: MIT\npragma solidity ^0.8.0;\n\ncontract UserAuth {\n    uint public userCount;\n\n    struct User {\n        string name;\n        string privilege;\n        string authority;\n    }\n\n    event UserRegistered(\n        address indexed walletId,\n        string indexed name,\n        string indexed privilege,\n        string authority\n    );\n\n    mapping(address => User) public Users;\n\n    function checkUserExists(address _userAddress) public view returns (bool) {\n        return\n            keccak256(abi.encodePacked(Users[_userAddress].privilege)) ==\n            keccak256(abi.encodePacked(\"government\")) ||\n            keccak256(abi.encodePacked(Users[_userAddress].privilege)) ==\n            keccak256(abi.encodePacked(\"industry\")) ||\n            keccak256(abi.encodePacked(Users[_userAddress].privilege)) ==\n            keccak256(abi.encodePacked(\"individual\"));\n    }\n\n    function setUser(\n        address _walletId,\n        string memory _name,\n        string memory _privilege,\n        string memory _authority\n    ) public {\n        Users[_walletId] = User(_name, _privilege, _authority);\n        userCount += 1;\n        emit UserRegistered(_walletId, _name, _privilege, _authority);\n    }\n}\n",
  "sourcePath": "/home/tenshkumar-k/Documents/GitHub/Green-Chain-PLI-Hackathon-2.0/contracts/UserAuth.sol",
  "compiler": {
    "name": "solc",
    "version": "0.8.0+commit.c7dfd78e.Emscripten.clang"
  },
  "schemaVersion": "3.4.16",
  "updatedAt": "2024-02-14T10:12:21.868Z",
  "networkType": "ethereum",
  "devdoc": {
    "kind": "dev",
    "methods": {},
    "version": 1
  },
  "userdoc": {
    "kind": "user",
    "methods": {},
    "version": 1
  }
}